{
  "contractName": "KYC",
  "abi": [
    {
      "inputs": [],
      "payable": false,
      "stateMutability": "nonpayable",
      "type": "constructor"
    },
    {
      "anonymous": false,
      "inputs": [
        {
          "indexed": false,
          "internalType": "string",
          "name": "name",
          "type": "string"
        },
        {
          "indexed": false,
          "internalType": "string",
          "name": "email",
          "type": "string"
        },
        {
          "indexed": false,
          "internalType": "uint256",
          "name": "bankCode",
          "type": "uint256"
        },
        {
          "indexed": false,
          "internalType": "address",
          "name": "bankAdress",
          "type": "address"
        },
        {
          "indexed": false,
          "internalType": "uint16",
          "name": "kycCount",
          "type": "uint16"
        },
        {
          "indexed": false,
          "internalType": "uint256",
          "name": "status",
          "type": "uint256"
        }
      ],
      "name": "addBankE",
      "type": "event"
    },
    {
      "anonymous": false,
      "inputs": [
        {
          "indexed": false,
          "internalType": "uint256",
          "name": "cin",
          "type": "uint256"
        },
        {
          "indexed": false,
          "internalType": "string",
          "name": "name",
          "type": "string"
        },
        {
          "indexed": false,
          "internalType": "string",
          "name": "email",
          "type": "string"
        },
        {
          "indexed": false,
          "internalType": "uint256",
          "name": "mobileNumber",
          "type": "uint256"
        },
        {
          "indexed": false,
          "internalType": "string",
          "name": "description",
          "type": "string"
        },
        {
          "indexed": false,
          "internalType": "uint256",
          "name": "timestamp",
          "type": "uint256"
        },
        {
          "indexed": false,
          "internalType": "uint256",
          "name": "status",
          "type": "uint256"
        }
      ],
      "name": "addCustomerE",
      "type": "event"
    },
    {
      "anonymous": false,
      "inputs": [
        {
          "indexed": false,
          "internalType": "uint256",
          "name": "id",
          "type": "uint256"
        },
        {
          "indexed": false,
          "internalType": "uint256",
          "name": "cin",
          "type": "uint256"
        },
        {
          "indexed": false,
          "internalType": "uint256",
          "name": "bankCode",
          "type": "uint256"
        },
        {
          "indexed": false,
          "internalType": "uint256",
          "name": "timestamp",
          "type": "uint256"
        },
        {
          "indexed": false,
          "internalType": "uint256",
          "name": "status",
          "type": "uint256"
        },
        {
          "indexed": false,
          "internalType": "string",
          "name": "description",
          "type": "string"
        }
      ],
      "name": "addKycReqE",
      "type": "event"
    },
    {
      "constant": true,
      "inputs": [],
      "name": "owner",
      "outputs": [
        {
          "internalType": "address",
          "name": "",
          "type": "address"
        }
      ],
      "payable": false,
      "stateMutability": "view",
      "type": "function"
    },
    {
      "constant": false,
      "inputs": [
        {
          "internalType": "uint256",
          "name": "cin",
          "type": "uint256"
        },
        {
          "internalType": "string",
          "name": "name",
          "type": "string"
        },
        {
          "internalType": "string",
          "name": "email",
          "type": "string"
        },
        {
          "internalType": "uint256",
          "name": "mobileNumber",
          "type": "uint256"
        },
        {
          "internalType": "string",
          "name": "description",
          "type": "string"
        }
      ],
      "name": "addCustomer",
      "outputs": [],
      "payable": false,
      "stateMutability": "nonpayable",
      "type": "function"
    },
    {
      "constant": true,
      "inputs": [],
      "name": "getAllCustomers",
      "outputs": [
        {
          "components": [
            {
              "internalType": "uint256",
              "name": "cin",
              "type": "uint256"
            },
            {
              "internalType": "string",
              "name": "name",
              "type": "string"
            },
            {
              "internalType": "string",
              "name": "email",
              "type": "string"
            },
            {
              "internalType": "uint256",
              "name": "mobileNumber",
              "type": "uint256"
            },
            {
              "internalType": "string",
              "name": "description",
              "type": "string"
            },
            {
              "internalType": "uint256",
              "name": "timestamp",
              "type": "uint256"
            },
            {
              "internalType": "uint256",
              "name": "status",
              "type": "uint256"
            }
          ],
          "internalType": "struct KYC.customer[]",
          "name": "CS",
          "type": "tuple[]"
        }
      ],
      "payable": false,
      "stateMutability": "view",
      "type": "function"
    },
    {
      "constant": true,
      "inputs": [
        {
          "internalType": "uint256",
          "name": "c",
          "type": "uint256"
        }
      ],
      "name": "getCustomerByCIN",
      "outputs": [
        {
          "components": [
            {
              "internalType": "uint256",
              "name": "cin",
              "type": "uint256"
            },
            {
              "internalType": "string",
              "name": "name",
              "type": "string"
            },
            {
              "internalType": "string",
              "name": "email",
              "type": "string"
            },
            {
              "internalType": "uint256",
              "name": "mobileNumber",
              "type": "uint256"
            },
            {
              "internalType": "string",
              "name": "description",
              "type": "string"
            },
            {
              "internalType": "uint256",
              "name": "timestamp",
              "type": "uint256"
            },
            {
              "internalType": "uint256",
              "name": "status",
              "type": "uint256"
            }
          ],
          "internalType": "struct KYC.customer",
          "name": "CS",
          "type": "tuple"
        }
      ],
      "payable": false,
      "stateMutability": "view",
      "type": "function"
    },
    {
      "constant": true,
      "inputs": [
        {
          "internalType": "uint256",
          "name": "c",
          "type": "uint256"
        }
      ],
      "name": "getStateOfCustomer",
      "outputs": [
        {
          "internalType": "uint256",
          "name": "stat",
          "type": "uint256"
        }
      ],
      "payable": false,
      "stateMutability": "view",
      "type": "function"
    },
    {
      "constant": true,
      "inputs": [],
      "name": "getCustomersCount",
      "outputs": [
        {
          "internalType": "uint256",
          "name": "",
          "type": "uint256"
        }
      ],
      "payable": false,
      "stateMutability": "view",
      "type": "function"
    },
    {
      "constant": false,
      "inputs": [
        {
          "internalType": "string",
          "name": "name",
          "type": "string"
        },
        {
          "internalType": "string",
          "name": "email",
          "type": "string"
        },
        {
          "internalType": "uint256",
          "name": "bankCode",
          "type": "uint256"
        },
        {
          "internalType": "address",
          "name": "bankAdress",
          "type": "address"
        }
      ],
      "name": "addBank",
      "outputs": [],
      "payable": false,
      "stateMutability": "nonpayable",
      "type": "function"
    },
    {
      "constant": true,
      "inputs": [],
      "name": "getAllBanks",
      "outputs": [
        {
          "components": [
            {
              "internalType": "string",
              "name": "name",
              "type": "string"
            },
            {
              "internalType": "string",
              "name": "email",
              "type": "string"
            },
            {
              "internalType": "uint256",
              "name": "bankCode",
              "type": "uint256"
            },
            {
              "internalType": "address",
              "name": "bankAdress",
              "type": "address"
            },
            {
              "internalType": "uint16",
              "name": "kycCount",
              "type": "uint16"
            },
            {
              "internalType": "uint256",
              "name": "status",
              "type": "uint256"
            }
          ],
          "internalType": "struct KYC.bank[]",
          "name": "",
          "type": "tuple[]"
        }
      ],
      "payable": false,
      "stateMutability": "view",
      "type": "function"
    },
    {
      "constant": true,
      "inputs": [
        {
          "internalType": "uint256",
          "name": "c",
          "type": "uint256"
        }
      ],
      "name": "getBankBybankCode",
      "outputs": [
        {
          "components": [
            {
              "internalType": "string",
              "name": "name",
              "type": "string"
            },
            {
              "internalType": "string",
              "name": "email",
              "type": "string"
            },
            {
              "internalType": "uint256",
              "name": "bankCode",
              "type": "uint256"
            },
            {
              "internalType": "address",
              "name": "bankAdress",
              "type": "address"
            },
            {
              "internalType": "uint16",
              "name": "kycCount",
              "type": "uint16"
            },
            {
              "internalType": "uint256",
              "name": "status",
              "type": "uint256"
            }
          ],
          "internalType": "struct KYC.bank",
          "name": "BN",
          "type": "tuple"
        }
      ],
      "payable": false,
      "stateMutability": "view",
      "type": "function"
    },
    {
      "constant": true,
      "inputs": [
        {
          "internalType": "uint256",
          "name": "c",
          "type": "uint256"
        }
      ],
      "name": "getStateOfBank",
      "outputs": [
        {
          "internalType": "uint256",
          "name": "stat",
          "type": "uint256"
        }
      ],
      "payable": false,
      "stateMutability": "view",
      "type": "function"
    },
    {
      "constant": true,
      "inputs": [],
      "name": "getBanksCount",
      "outputs": [
        {
          "internalType": "uint256",
          "name": "",
          "type": "uint256"
        }
      ],
      "payable": false,
      "stateMutability": "view",
      "type": "function"
    },
    {
      "constant": false,
      "inputs": [
        {
          "internalType": "uint256",
          "name": "id",
          "type": "uint256"
        },
        {
          "internalType": "uint256",
          "name": "cin",
          "type": "uint256"
        },
        {
          "internalType": "uint256",
          "name": "bankCode",
          "type": "uint256"
        },
        {
          "internalType": "string",
          "name": "description",
          "type": "string"
        }
      ],
      "name": "addKycReq",
      "outputs": [],
      "payable": false,
      "stateMutability": "nonpayable",
      "type": "function"
    },
    {
      "constant": true,
      "inputs": [
        {
          "internalType": "uint256",
          "name": "id",
          "type": "uint256"
        }
      ],
      "name": "approvingKycReq",
      "outputs": [
        {
          "components": [
            {
              "internalType": "uint256",
              "name": "id",
              "type": "uint256"
            },
            {
              "internalType": "uint256",
              "name": "cin",
              "type": "uint256"
            },
            {
              "internalType": "uint256",
              "name": "bankCode",
              "type": "uint256"
            },
            {
              "internalType": "uint256",
              "name": "timestamp",
              "type": "uint256"
            },
            {
              "internalType": "uint256",
              "name": "status",
              "type": "uint256"
            },
            {
              "internalType": "string",
              "name": "description",
              "type": "string"
            }
          ],
          "internalType": "struct KYC.kycReq",
          "name": "kyc_temp",
          "type": "tuple"
        }
      ],
      "payable": false,
      "stateMutability": "view",
      "type": "function"
    },
    {
      "constant": true,
      "inputs": [],
      "name": "getKycReqs",
      "outputs": [
        {
          "components": [
            {
              "internalType": "uint256",
              "name": "id",
              "type": "uint256"
            },
            {
              "internalType": "uint256",
              "name": "cin",
              "type": "uint256"
            },
            {
              "internalType": "uint256",
              "name": "bankCode",
              "type": "uint256"
            },
            {
              "internalType": "uint256",
              "name": "timestamp",
              "type": "uint256"
            },
            {
              "internalType": "uint256",
              "name": "status",
              "type": "uint256"
            },
            {
              "internalType": "string",
              "name": "description",
              "type": "string"
            }
          ],
          "internalType": "struct KYC.kycReq[]",
          "name": "kycreqs",
          "type": "tuple[]"
        }
      ],
      "payable": false,
      "stateMutability": "view",
      "type": "function"
    },
    {
      "constant": true,
      "inputs": [
        {
          "internalType": "uint256",
          "name": "c",
          "type": "uint256"
        }
      ],
      "name": "getKycReqByCIN",
      "outputs": [
        {
          "components": [
            {
              "internalType": "uint256",
              "name": "id",
              "type": "uint256"
            },
            {
              "internalType": "uint256",
              "name": "cin",
              "type": "uint256"
            },
            {
              "internalType": "uint256",
              "name": "bankCode",
              "type": "uint256"
            },
            {
              "internalType": "uint256",
              "name": "timestamp",
              "type": "uint256"
            },
            {
              "internalType": "uint256",
              "name": "status",
              "type": "uint256"
            },
            {
              "internalType": "string",
              "name": "description",
              "type": "string"
            }
          ],
          "internalType": "struct KYC.kycReq",
          "name": "kycreq",
          "type": "tuple"
        }
      ],
      "payable": false,
      "stateMutability": "view",
      "type": "function"
    },
    {
      "constant": true,
      "inputs": [
        {
          "internalType": "uint256",
          "name": "c",
          "type": "uint256"
        }
      ],
      "name": "getKycReqByBankCode",
      "outputs": [
        {
          "components": [
            {
              "internalType": "uint256",
              "name": "id",
              "type": "uint256"
            },
            {
              "internalType": "uint256",
              "name": "cin",
              "type": "uint256"
            },
            {
              "internalType": "uint256",
              "name": "bankCode",
              "type": "uint256"
            },
            {
              "internalType": "uint256",
              "name": "timestamp",
              "type": "uint256"
            },
            {
              "internalType": "uint256",
              "name": "status",
              "type": "uint256"
            },
            {
              "internalType": "string",
              "name": "description",
              "type": "string"
            }
          ],
          "internalType": "struct KYC.kycReq",
          "name": "kycreq",
          "type": "tuple"
        }
      ],
      "payable": false,
      "stateMutability": "view",
      "type": "function"
    },
    {
      "constant": true,
      "inputs": [
        {
          "internalType": "uint256",
          "name": "c",
          "type": "uint256"
        }
      ],
      "name": "getStateOfKycReq",
      "outputs": [
        {
          "internalType": "uint256",
          "name": "status",
          "type": "uint256"
        }
      ],
      "payable": false,
      "stateMutability": "view",
      "type": "function"
    },
    {
      "constant": true,
      "inputs": [],
      "name": "getKycReqCount",
      "outputs": [
        {
          "internalType": "uint256",
          "name": "nbr",
          "type": "uint256"
        }
      ],
      "payable": false,
      "stateMutability": "view",
      "type": "function"
    }
  ],
  "bytecode": "0x6080604052336000806101000a81548173ffffffffffffffffffffffffffffffffffffffff021916908373ffffffffffffffffffffffffffffffffffffffff16021790555034801561005057600080fd5b50600060028190555060006004819055506126ce806100706000396000f3fe608060405234801561001057600080fd5b50600436106101155760003560e01c8063730e3f8d116100a2578063af791e2911610071578063af791e29146102f6578063d42d5fdf14610314578063daf1978d14610330578063eeb3f5e014610360578063f00f902c1461039057610115565b8063730e3f8d1461026c5780637da67ba81461029c5780638da5cb5b146102ba578063951c8a07146102d857610115565b80633656cc67116100e95780633656cc67146101b4578063484e50c0146101e45780635f75b31f1461020257806360bda6421461021e57806368ac61f11461024e57610115565b8062ec44781461011a578063182bc63f1461014a578063186de7be146101685780631e9d627f14610198575b600080fd5b610134600480360361012f9190810190611a83565b6103c0565b6040516101419190612303565b60405180910390f35b61015261064e565b60405161015f9190612347565b60405180910390f35b610182600480360361017d9190810190611a83565b610658565b60405161018f9190612325565b60405180910390f35b6101b260048036036101ad91908101906119f0565b6107ac565b005b6101ce60048036036101c99190810190611a83565b610936565b6040516101db9190612347565b60405180910390f35b6101ec6109a9565b6040516101f99190612347565b60405180910390f35b61021c60048036036102179190810190611b6b565b6109b3565b005b61023860048036036102339190810190611a83565b610ab9565b6040516102459190612325565b60405180910390f35b610256610c0d565b6040516102639190612347565b60405180910390f35b61028660048036036102819190810190611a83565b610c17565b6040516102939190612347565b60405180910390f35b6102a4610cab565b6040516102b1919061222e565b60405180910390f35b6102c2610f18565b6040516102cf91906121f1565b60405180910390f35b6102e0610f3d565b6040516102ed919061220c565b60405180910390f35b6102fe61116a565b60405161030b9190612250565b60405180910390f35b61032e60048036036103299190810190611aac565b61129d565b005b61034a60048036036103459190810190611a83565b6113dc565b6040516103579190612347565b60405180910390f35b61037a60048036036103759190810190611a83565b61144f565b6040516103879190612325565b60405180910390f35b6103aa60048036036103a59190810190611a83565b6115bc565b6040516103b791906122e1565b60405180910390f35b6103c861180a565b60008090505b6002548110156106475782600182815481106103e657fe5b906000526020600020906007020160000154141561063a576001818154811061040b57fe5b90600052602060002090600702016040518060e001604052908160008201548152602001600182018054600181600116156101000203166002900480601f0160208091040260200160405190810160405280929190818152602001828054600181600116156101000203166002900480156104c75780601f1061049c576101008083540402835291602001916104c7565b820191906000526020600020905b8154815290600101906020018083116104aa57829003601f168201915b50505050508152602001600282018054600181600116156101000203166002900480601f0160208091040260200160405190810160405280929190818152602001828054600181600116156101000203166002900480156105695780601f1061053e57610100808354040283529160200191610569565b820191906000526020600020905b81548152906001019060200180831161054c57829003601f168201915b5050505050815260200160038201548152602001600482018054600181600116156101000203166002900480601f0160208091040260200160405190810160405280929190818152602001828054600181600116156101000203166002900480156106155780601f106105ea57610100808354040283529160200191610615565b820191906000526020600020905b8154815290600101906020018083116105f857829003601f168201915b5050505050815260200160058201548152602001600682015481525050915050610649565b80806001019150506103ce565b505b919050565b6000600254905090565b610660611847565b60008090505b6006548110156107a557826005828154811061067e57fe5b906000526020600020906006020160010154141561079857600581815481106106a357fe5b90600052602060002090600602016040518060c00160405290816000820154815260200160018201548152602001600282015481526020016003820154815260200160048201548152602001600582018054600181600116156101000203166002900480601f0160208091040260200160405190810160405280929190818152602001828054600181600116156101000203166002900480156107875780601f1061075c57610100808354040283529160200191610787565b820191906000526020600020905b81548152906001019060200180831161076a57829003601f168201915b5050505050815250509150506107a7565b8080600101915050610666565b505b919050565b600160046000828254019250508190555060036040518060c001604052808681526020018581526020018481526020018373ffffffffffffffffffffffffffffffffffffffff168152602001600061ffff168152602001600081525090806001815401808255809150509060018203906000526020600020906005020160009091929091909150600082015181600001908051906020019061084f92919061187d565b50602082015181600101908051906020019061086c92919061187d565b506040820151816002015560608201518160030160006101000a81548173ffffffffffffffffffffffffffffffffffffffff021916908373ffffffffffffffffffffffffffffffffffffffff16021790555060808201518160030160146101000a81548161ffff021916908361ffff16021790555060a082015181600401555050507ff0d7a0018fee6def67e50a8bedaf194d3613f2ac6b1dc1490836bacf67291f3f8484848460008060405161092896959493929190612272565b60405180910390a150505050565b600080600090505b6004548110156109a257826003828154811061095657fe5b9060005260206000209060050201600201541415610995576003818154811061097b57fe5b9060005260206000209060050201600401549150506109a4565b808060010191505061093e565b505b919050565b6000600454905090565b600160066000828254019250508190555060056040518060c00160405280868152602001858152602001848152602001428152602001600081526020018381525090806001815401808255809150509060018203906000526020600020906006020160009091929091909150600082015181600001556020820151816001015560408201518160020155606082015181600301556080820151816004015560a0820151816005019080519060200190610a6d92919061187d565b505050507fddd05999853cdc6bc440bee16ef6a6a2ba7c3c57ee7f832d76cb035b2f77956f84848442600086604051610aab969594939291906123e6565b60405180910390a150505050565b610ac1611847565b60008090505b600654811015610c06578260058281548110610adf57fe5b9060005260206000209060060201600201541415610bf95760058181548110610b0457fe5b90600052602060002090600602016040518060c00160405290816000820154815260200160018201548152602001600282015481526020016003820154815260200160048201548152602001600582018054600181600116156101000203166002900480601f016020809104026020016040519081016040528092919081815260200182805460018160011615610100020316600290048015610be85780601f10610bbd57610100808354040283529160200191610be8565b820191906000526020600020905b815481529060010190602001808311610bcb57829003601f168201915b505050505081525050915050610c08565b8080600101915050610ac7565b505b919050565b6000600654905090565b600080600090505b600254811015610ca4578260018281548110610c3757fe5b9060005260206000209060070201600001541415610c975760018181548110610c5c57fe5b906000526020600020906007020160060154915060018181548110610c7d57fe5b906000526020600020906007020160060154915050610ca6565b8080600101915050610c1f565b505b919050565b60606001805480602002602001604051908101604052809291908181526020016000905b82821015610f0f57838290600052602060002090600702016040518060e001604052908160008201548152602001600182018054600181600116156101000203166002900480601f016020809104026020016040519081016040528092919081815260200182805460018160011615610100020316600290048015610d955780601f10610d6a57610100808354040283529160200191610d95565b820191906000526020600020905b815481529060010190602001808311610d7857829003601f168201915b50505050508152602001600282018054600181600116156101000203166002900480601f016020809104026020016040519081016040528092919081815260200182805460018160011615610100020316600290048015610e375780601f10610e0c57610100808354040283529160200191610e37565b820191906000526020600020905b815481529060010190602001808311610e1a57829003601f168201915b5050505050815260200160038201548152602001600482018054600181600116156101000203166002900480601f016020809104026020016040519081016040528092919081815260200182805460018160011615610100020316600290048015610ee35780601f10610eb857610100808354040283529160200191610ee3565b820191906000526020600020905b815481529060010190602001808311610ec657829003601f168201915b505050505081526020016005820154815260200160068201548152505081526020019060010190610ccf565b50505050905090565b6000809054906101000a900473ffffffffffffffffffffffffffffffffffffffff1681565b60606003805480602002602001604051908101604052809291908181526020016000905b8282101561116157838290600052602060002090600502016040518060c0016040529081600082018054600181600116156101000203166002900480601f01602080910402602001604051908101604052809291908181526020018280546001816001161561010002031660029004801561101d5780601f10610ff25761010080835404028352916020019161101d565b820191906000526020600020905b81548152906001019060200180831161100057829003601f168201915b50505050508152602001600182018054600181600116156101000203166002900480601f0160208091040260200160405190810160405280929190818152602001828054600181600116156101000203166002900480156110bf5780601f10611094576101008083540402835291602001916110bf565b820191906000526020600020905b8154815290600101906020018083116110a257829003601f168201915b50505050508152602001600282015481526020016003820160009054906101000a900473ffffffffffffffffffffffffffffffffffffffff1673ffffffffffffffffffffffffffffffffffffffff1673ffffffffffffffffffffffffffffffffffffffff1681526020016003820160149054906101000a900461ffff1661ffff1661ffff16815260200160048201548152505081526020019060010190610f61565b50505050905090565b60606005805480602002602001604051908101604052809291908181526020016000905b8282101561129457838290600052602060002090600602016040518060c00160405290816000820154815260200160018201548152602001600282015481526020016003820154815260200160048201548152602001600582018054600181600116156101000203166002900480601f01602080910402602001604051908101604052809291908181526020018280546001816001161561010002031660029004801561127c5780601f106112515761010080835404028352916020019161127c565b820191906000526020600020905b81548152906001019060200180831161125f57829003601f168201915b5050505050815250508152602001906001019061118e565b50505050905090565b600160026000828254019250508190555060016040518060e0016040528087815260200186815260200185815260200184815260200183815260200142815260200160018152509080600181540180825580915050906001820390600052602060002090600702016000909192909190915060008201518160000155602082015181600101908051906020019061133592919061187d565b50604082015181600201908051906020019061135292919061187d565b5060608201518160030155608082015181600401908051906020019061137992919061187d565b5060a0820151816005015560c082015181600601555050507f0c80f2443dee431ec4a868e4ec831c6bb965b3d8bc18d8715c744d8276729cbe85858585854260016040516113cd9796959493929190612362565b60405180910390a15050505050565b600080600090505b6006548110156114485782600582815481106113fc57fe5b906000526020600020906006020160010154141561143b576005818154811061142157fe5b90600052602060002090600602016004015491505061144a565b80806001019150506113e4565b505b919050565b611457611847565b60008090505b60065481101561159757826005828154811061147557fe5b906000526020600020906006020160000154141561158a576005818154811061149a57fe5b90600052602060002090600602016040518060c00160405290816000820154815260200160018201548152602001600282015481526020016003820154815260200160048201548152602001600582018054600181600116156101000203166002900480601f01602080910402602001604051908101604052809291908181526020018280546001816001161561010002031660029004801561157e5780601f106115535761010080835404028352916020019161157e565b820191906000526020600020905b81548152906001019060200180831161156157829003601f168201915b50505050508152505091505b808060010191505061145d565b5060016115a78260200151610c17565b14156115b7576002816080015150505b919050565b6115c46118fd565b60008090505b6004548110156118035782600382815481106115e257fe5b90600052602060002090600502016002015414156117f6576003818154811061160757fe5b90600052602060002090600502016040518060c0016040529081600082018054600181600116156101000203166002900480601f0160208091040260200160405190810160405280929190818152602001828054600181600116156101000203166002900480156116b95780601f1061168e576101008083540402835291602001916116b9565b820191906000526020600020905b81548152906001019060200180831161169c57829003601f168201915b50505050508152602001600182018054600181600116156101000203166002900480601f01602080910402602001604051908101604052809291908181526020018280546001816001161561010002031660029004801561175b5780601f106117305761010080835404028352916020019161175b565b820191906000526020600020905b81548152906001019060200180831161173e57829003601f168201915b50505050508152602001600282015481526020016003820160009054906101000a900473ffffffffffffffffffffffffffffffffffffffff1673ffffffffffffffffffffffffffffffffffffffff1673ffffffffffffffffffffffffffffffffffffffff1681526020016003820160149054906101000a900461ffff1661ffff1661ffff168152602001600482015481525050915050611805565b80806001019150506115ca565b505b919050565b6040518060e00160405280600081526020016060815260200160608152602001600081526020016060815260200160008152602001600081525090565b6040518060c001604052806000815260200160008152602001600081526020016000815260200160008152602001606081525090565b828054600181600116156101000203166002900490600052602060002090601f016020900481019282601f106118be57805160ff19168380011785556118ec565b828001600101855582156118ec579182015b828111156118eb5782518255916020019190600101906118d0565b5b5090506118f9919061194d565b5090565b6040518060c00160405280606081526020016060815260200160008152602001600073ffffffffffffffffffffffffffffffffffffffff168152602001600061ffff168152602001600081525090565b61196f91905b8082111561196b576000816000905550600101611953565b5090565b90565b6000813590506119818161265d565b92915050565b600082601f83011261199857600080fd5b81356119ab6119a68261247b565b61244e565b915080825260208301602083018583830111156119c757600080fd5b6119d283828461260a565b50505092915050565b6000813590506119ea81612674565b92915050565b60008060008060808587031215611a0657600080fd5b600085013567ffffffffffffffff811115611a2057600080fd5b611a2c87828801611987565b945050602085013567ffffffffffffffff811115611a4957600080fd5b611a5587828801611987565b9350506040611a66878288016119db565b9250506060611a7787828801611972565b91505092959194509250565b600060208284031215611a9557600080fd5b6000611aa3848285016119db565b91505092915050565b600080600080600060a08688031215611ac457600080fd5b6000611ad2888289016119db565b955050602086013567ffffffffffffffff811115611aef57600080fd5b611afb88828901611987565b945050604086013567ffffffffffffffff811115611b1857600080fd5b611b2488828901611987565b9350506060611b35888289016119db565b925050608086013567ffffffffffffffff811115611b5257600080fd5b611b5e88828901611987565b9150509295509295909350565b60008060008060808587031215611b8157600080fd5b6000611b8f878288016119db565b9450506020611ba0878288016119db565b9350506040611bb1878288016119db565b925050606085013567ffffffffffffffff811115611bce57600080fd5b611bda87828801611987565b91505092959194509250565b6000611bf28383611ece565b905092915050565b6000611c068383612008565b905092915050565b6000611c1a838361213b565b905092915050565b611c2b8161258a565b82525050565b611c3a8161258a565b82525050565b6000611c4b826124d7565b611c558185612535565b935083602082028501611c67856124a7565b8060005b85811015611ca35784840389528151611c848582611be6565b9450611c8f8361250e565b925060208a01995050600181019050611c6b565b50829750879550505050505092915050565b6000611cc0826124e2565b611cca8185612546565b935083602082028501611cdc856124b7565b8060005b85811015611d185784840389528151611cf98582611bfa565b9450611d048361251b565b925060208a01995050600181019050611ce0565b50829750879550505050505092915050565b6000611d35826124ed565b611d3f8185612557565b935083602082028501611d51856124c7565b8060005b85811015611d8d5784840389528151611d6e8582611c0e565b9450611d7983612528565b925060208a01995050600181019050611d55565b50829750879550505050505092915050565b611da8816125d4565b82525050565b611db7816125e6565b82525050565b611dc6816125f8565b82525050565b6000611dd782612503565b611de18185612579565b9350611df1818560208601612619565b611dfa8161264c565b840191505092915050565b6000611e10826124f8565b611e1a8185612568565b9350611e2a818560208601612619565b611e338161264c565b840191505092915050565b600060c0830160008301518482036000860152611e5b8282611e05565b91505060208301518482036020860152611e758282611e05565b9150506040830151611e8a60408601826121d3565b506060830151611e9d6060860182611c22565b506080830151611eb060808601826121c4565b5060a0830151611ec360a08601826121d3565b508091505092915050565b600060c0830160008301518482036000860152611eeb8282611e05565b91505060208301518482036020860152611f058282611e05565b9150506040830151611f1a60408601826121d3565b506060830151611f2d6060860182611c22565b506080830151611f4060808601826121c4565b5060a0830151611f5360a08601826121d3565b508091505092915050565b600060e083016000830151611f7660008601826121d3565b5060208301518482036020860152611f8e8282611e05565b91505060408301518482036040860152611fa88282611e05565b9150506060830151611fbd60608601826121d3565b5060808301518482036080860152611fd58282611e05565b91505060a0830151611fea60a08601826121d3565b5060c0830151611ffd60c08601826121d3565b508091505092915050565b600060e08301600083015161202060008601826121d3565b50602083015184820360208601526120388282611e05565b915050604083015184820360408601526120528282611e05565b915050606083015161206760608601826121d3565b506080830151848203608086015261207f8282611e05565b91505060a083015161209460a08601826121d3565b5060c08301516120a760c08601826121d3565b508091505092915050565b600060c0830160008301516120ca60008601826121d3565b5060208301516120dd60208601826121d3565b5060408301516120f060408601826121d3565b50606083015161210360608601826121d3565b50608083015161211660808601826121d3565b5060a083015184820360a086015261212e8282611e05565b9150508091505092915050565b600060c08301600083015161215360008601826121d3565b50602083015161216660208601826121d3565b50604083015161217960408601826121d3565b50606083015161218c60608601826121d3565b50608083015161219f60808601826121d3565b5060a083015184820360a08601526121b78282611e05565b9150508091505092915050565b6121cd8161259c565b82525050565b6121dc816125ca565b82525050565b6121eb816125ca565b82525050565b60006020820190506122066000830184611c31565b92915050565b600060208201905081810360008301526122268184611c40565b905092915050565b600060208201905081810360008301526122488184611cb5565b905092915050565b6000602082019050818103600083015261226a8184611d2a565b905092915050565b600060c082019050818103600083015261228c8189611dcc565b905081810360208301526122a08188611dcc565b90506122af60408301876121e2565b6122bc6060830186611c31565b6122c96080830185611d9f565b6122d660a0830184611dae565b979650505050505050565b600060208201905081810360008301526122fb8184611e3e565b905092915050565b6000602082019050818103600083015261231d8184611f5e565b905092915050565b6000602082019050818103600083015261233f81846120b2565b905092915050565b600060208201905061235c60008301846121e2565b92915050565b600060e082019050612377600083018a6121e2565b81810360208301526123898189611dcc565b9050818103604083015261239d8188611dcc565b90506123ac60608301876121e2565b81810360808301526123be8186611dcc565b90506123cd60a08301856121e2565b6123da60c0830184611dbd565b98975050505050505050565b600060c0820190506123fb60008301896121e2565b61240860208301886121e2565b61241560408301876121e2565b61242260608301866121e2565b61242f6080830185611dae565b81810360a08301526124418184611dcc565b9050979650505050505050565b6000604051905081810181811067ffffffffffffffff8211171561247157600080fd5b8060405250919050565b600067ffffffffffffffff82111561249257600080fd5b601f19601f8301169050602081019050919050565b6000819050602082019050919050565b6000819050602082019050919050565b6000819050602082019050919050565b600081519050919050565b600081519050919050565b600081519050919050565b600081519050919050565b600081519050919050565b6000602082019050919050565b6000602082019050919050565b6000602082019050919050565b600082825260208201905092915050565b600082825260208201905092915050565b600082825260208201905092915050565b600082825260208201905092915050565b600082825260208201905092915050565b6000612595826125aa565b9050919050565b600061ffff82169050919050565b600073ffffffffffffffffffffffffffffffffffffffff82169050919050565b6000819050919050565b60006125df8261259c565b9050919050565b60006125f1826125ca565b9050919050565b6000612603826125ca565b9050919050565b82818337600083830152505050565b60005b8381101561263757808201518184015260208101905061261c565b83811115612646576000848401525b50505050565b6000601f19601f8301169050919050565b6126668161258a565b811461267157600080fd5b50565b61267d816125ca565b811461268857600080fd5b5056fea365627a7a72315820cda3fef3aaa8d0c56f3ae386acd45cc9600984fe0dd6672b3ac646692d25043a6c6578706572696d656e74616cf564736f6c63430005100040",
  "source": "pragma solidity >=0.4.22 <0.7.0;\r\npragma experimental ABIEncoderV2;\r\n\r\ncontract KYC{\r\n    address public owner = msg.sender;\r\n    \r\n    // ----------------------Structure-------------------------\r\n    struct customer {\r\n        uint256 cin;\r\n        string name;\r\n        string email;\r\n        uint256 mobileNumber;\r\n        string description; // description du customer\r\n        uint timestamp; // horaire de l'enregistrement sur la blockchain\r\n        uint status;//ok=1 ou no=0\r\n    }\r\n    struct bank {\r\n        string name;\r\n        string email;\r\n        uint256 bankCode;\r\n        address bankAdress;\r\n        uint16 kycCount; // How many KCY's did this bank completed so far\r\n        uint status; // Active=1,Inactive=0 \r\n    }\r\n    struct kycReq {\r\n        uint256 id;\r\n        uint256 cin;\r\n        uint256 bankCode;\r\n        uint timestamp;\r\n        uint status;//Pending=0 , KYCVerified=1, KYCFailed=2\r\n        string description; \r\n    }\r\n\r\n    //---------------Listes-----------------------------------\r\n    //--all customers\r\n    customer[] all_customers ; \r\n    uint  number_customers ; \r\n    //--all banks\r\n    bank[] all_banks ; \r\n    uint  number_banks ;\r\n    //--all kycRequest\r\n    kycReq[] all_kycReqs ; \r\n    uint  number_kycReqs ;\r\n    \r\n\r\n\r\n   //$$$$$$$$$$$$$$$$$$$$$$$$$$$$$$$$$$$$$$$$$$$$$$$$$$$$$$$$$$$$$$$$\r\n   constructor() public {\r\n        number_customers=0 ; \r\n        number_banks=0 ; \r\n\r\n       \r\n   }\r\n    //*********************CUSTOMER*********************************************\r\n    event addCustomerE(uint256 cin,string name,string email,uint256 mobileNumber,string description,uint timestamp, uint status);\r\n\r\n\r\n    function addCustomer(uint256 cin,string memory name,string memory email,uint256 mobileNumber,string memory description) public{\r\n        number_customers+=1;\r\n        all_customers.push(customer(cin,name,email,mobileNumber,description,block.timestamp,1));\r\n        emit addCustomerE(cin,name,email,mobileNumber,description,block.timestamp,1);\r\n        }\r\n\r\n    function getAllCustomers() public view returns(customer[] memory CS){\r\n        return all_customers;\r\n    }\r\n\r\n    function getCustomerByCIN(uint256 c) public view returns(customer memory CS){\r\n        for (uint256 i = 0; i < number_customers; i++) \r\n            if ( all_customers[i].cin == c ) {\r\n                return all_customers[i];\r\n            }       \r\n        }\r\n\r\n    function getStateOfCustomer(uint256 c) public view returns(uint stat){\r\n        for (uint256 i = 0; i < number_customers; i++) \r\n            if ( all_customers[i].cin == c ) {\r\n                stat = all_customers[i].status;\r\n                return all_customers[i].status;\r\n            }       \r\n        }\r\n\r\n    function getCustomersCount() public view returns(uint256){\r\n        return number_customers;\r\n    }\r\n    //*********************BANK*********************************************\r\n\r\n    event addBankE(string name,string email,uint256 bankCode,address bankAdress,uint16 kycCount,uint status);\r\n\r\n    function addBank(string memory name,string memory email,uint256 bankCode,address bankAdress) public{\r\n        number_banks+=1;\r\n        all_banks.push(bank(name, email,bankCode,bankAdress,0,0));\r\n        emit addBankE(name, email,bankCode,bankAdress,0,0);\r\n        }\r\n\r\n    function getAllBanks() public view returns(bank[] memory){\r\n        return all_banks;\r\n    }\r\n\r\n    function getBankBybankCode(uint256 c) public view returns(bank memory BN){\r\n        for (uint256 i = 0; i < number_banks; i++) \r\n            if ( all_banks[i].bankCode == c ) {\r\n                return all_banks[i];\r\n            }       \r\n        }\r\n\r\n    function getStateOfBank( uint256 c) public view returns(uint stat){\r\n        for (uint256 i = 0; i < number_banks; i++) \r\n            if ( all_banks[i].bankCode == c ) {\r\n                return all_banks[i].status;\r\n            }       \r\n        }\r\n\r\n    function getBanksCount() public view returns(uint256){\r\n        return number_banks;\r\n    }\r\n    //*********************KYCRequest*********************************************\r\n    event addKycReqE(uint256 id,uint256 cin,uint256 bankCode,uint timestamp,uint status,string description);\r\n\r\n\r\n    function addKycReq(uint256 id,uint256 cin,uint256 bankCode,string memory description) public{\r\n        number_kycReqs+=1;\r\n        all_kycReqs.push(kycReq(id,cin,bankCode,block.timestamp,0,description));\r\n        emit addKycReqE(id,cin,bankCode,block.timestamp,0,description);\r\n        }\r\n\r\n    function approvingKycReq(uint256 id) public view returns(kycReq memory kyc_temp ){        \r\n        for (uint256 i = 0; i < number_kycReqs; i++) \r\n            if ( all_kycReqs[i].id == id ) {\r\n                kyc_temp = all_kycReqs[i];\r\n            }   \r\n        if(getStateOfCustomer(kyc_temp.cin)==1){\r\n            kyc_temp.status ==2;\r\n        }\r\n    }\r\n\r\n    function getKycReqs() public view returns(kycReq[] memory kycreqs){\r\n        return all_kycReqs;\r\n    }\r\n\r\n    function getKycReqByCIN(uint256 c) public view returns(kycReq memory kycreq){\r\n        for (uint256 i = 0; i < number_kycReqs; i++) \r\n            if ( all_kycReqs[i].cin == c ) {\r\n                return all_kycReqs[i];\r\n            }       \r\n        }\r\n    function getKycReqByBankCode(uint256 c) public view returns(kycReq memory kycreq){\r\n        for (uint256 i = 0; i < number_kycReqs; i++) \r\n            if ( all_kycReqs[i].bankCode == c ) {\r\n                return all_kycReqs[i];\r\n            }       \r\n        }\r\n\r\n    function getStateOfKycReq(uint256 c) public view returns(uint status){\r\n        for (uint256 i = 0; i < number_kycReqs; i++) \r\n            if ( all_kycReqs[i].cin == c ) {\r\n                return all_kycReqs[i].status;\r\n            }       \r\n        }\r\n\r\n    function getKycReqCount() public view returns(uint256 nbr){\r\n        return number_kycReqs;\r\n    }\r\n\r\n\r\n}",
  "sourcePath": "C:\\Users\\Oumayma\\Desktop\\Projet Dapp_KYC\\contracts\\KYC.sol",
  "compiler": {
    "name": "solc",
    "version": "0.5.16+commit.9c3226ce.Emscripten.clang"
  },
  "schemaVersion": "3.4.11",
  "updatedAt": "2022-12-03T10:57:01.539Z",
  "devdoc": {
    "methods": {}
  },
  "userdoc": {
    "methods": {}
  }
}