{
  "contractName": "Kyc",
  "abi": [
    {
      "inputs": [],
      "stateMutability": "nonpayable",
      "type": "constructor"
    },
    {
      "anonymous": false,
      "inputs": [
        {
          "indexed": false,
          "internalType": "uint256",
          "name": "reqid",
          "type": "uint256"
        },
        {
          "indexed": false,
          "internalType": "address",
          "name": "custAddress",
          "type": "address"
        },
        {
          "indexed": false,
          "internalType": "address",
          "name": "ethAddress",
          "type": "address"
        },
        {
          "indexed": false,
          "internalType": "bool",
          "name": "isAllowed",
          "type": "bool"
        }
      ],
      "name": "accessGiven",
      "type": "event"
    },
    {
      "anonymous": false,
      "inputs": [
        {
          "indexed": false,
          "internalType": "address",
          "name": "custAddress",
          "type": "address"
        },
        {
          "indexed": false,
          "internalType": "address",
          "name": "ethAddress",
          "type": "address"
        }
      ],
      "name": "accessRevoked",
      "type": "event"
    },
    {
      "anonymous": false,
      "inputs": [
        {
          "indexed": false,
          "internalType": "address",
          "name": "custAddress",
          "type": "address"
        },
        {
          "indexed": false,
          "internalType": "bool",
          "name": "kycStatus",
          "type": "bool"
        }
      ],
      "name": "customerAdded",
      "type": "event"
    },
    {
      "anonymous": false,
      "inputs": [
        {
          "indexed": false,
          "internalType": "address",
          "name": "custAddress",
          "type": "address"
        },
        {
          "indexed": false,
          "internalType": "bool",
          "name": "kycStatus",
          "type": "bool"
        }
      ],
      "name": "customerUpdated",
      "type": "event"
    },
    {
      "anonymous": false,
      "inputs": [
        {
          "indexed": false,
          "internalType": "address",
          "name": "custAddress",
          "type": "address"
        },
        {
          "indexed": false,
          "internalType": "address",
          "name": "ethAddress",
          "type": "address"
        }
      ],
      "name": "kycRemoved",
      "type": "event"
    },
    {
      "anonymous": false,
      "inputs": [
        {
          "indexed": false,
          "internalType": "string",
          "name": "name",
          "type": "string"
        },
        {
          "indexed": false,
          "internalType": "address",
          "name": "ethAddress",
          "type": "address"
        }
      ],
      "name": "orgAdded",
      "type": "event"
    },
    {
      "anonymous": false,
      "inputs": [
        {
          "indexed": false,
          "internalType": "address",
          "name": "ethAddress",
          "type": "address"
        }
      ],
      "name": "orgRemoved",
      "type": "event"
    },
    {
      "anonymous": false,
      "inputs": [
        {
          "indexed": false,
          "internalType": "uint256",
          "name": "reqid",
          "type": "uint256"
        },
        {
          "indexed": false,
          "internalType": "address",
          "name": "ethAddress",
          "type": "address"
        },
        {
          "indexed": false,
          "internalType": "address",
          "name": "custAddress",
          "type": "address"
        },
        {
          "indexed": false,
          "internalType": "bool",
          "name": "isAllowed",
          "type": "bool"
        }
      ],
      "name": "requestAdded",
      "type": "event"
    },
    {
      "anonymous": false,
      "inputs": [
        {
          "indexed": false,
          "internalType": "uint256",
          "name": "reqid",
          "type": "uint256"
        },
        {
          "indexed": false,
          "internalType": "address",
          "name": "ethAddress",
          "type": "address"
        }
      ],
      "name": "requestRemoved",
      "type": "event"
    },
    {
      "inputs": [],
      "name": "admin",
      "outputs": [
        {
          "internalType": "address",
          "name": "",
          "type": "address"
        }
      ],
      "stateMutability": "view",
      "type": "function",
      "constant": true
    },
    {
      "inputs": [
        {
          "internalType": "string",
          "name": "_name",
          "type": "string"
        },
        {
          "internalType": "address",
          "name": "_ethAddress",
          "type": "address"
        }
      ],
      "name": "addOrg",
      "outputs": [
        {
          "internalType": "bool",
          "name": "",
          "type": "bool"
        }
      ],
      "stateMutability": "nonpayable",
      "type": "function"
    },
    {
      "inputs": [
        {
          "internalType": "address",
          "name": "_ethAddress",
          "type": "address"
        }
      ],
      "name": "removeOrg",
      "outputs": [
        {
          "internalType": "bool",
          "name": "",
          "type": "bool"
        }
      ],
      "stateMutability": "nonpayable",
      "type": "function"
    },
    {
      "inputs": [
        {
          "internalType": "address",
          "name": "_ethAddress",
          "type": "address"
        }
      ],
      "name": "viewOrg",
      "outputs": [
        {
          "components": [
            {
              "internalType": "string",
              "name": "name",
              "type": "string"
            },
            {
              "internalType": "address",
              "name": "ethAddress",
              "type": "address"
            }
          ],
          "internalType": "struct Kyc.Organization",
          "name": "",
          "type": "tuple"
        }
      ],
      "stateMutability": "view",
      "type": "function",
      "constant": true
    },
    {
      "inputs": [],
      "name": "getYourOrgDetail",
      "outputs": [
        {
          "components": [
            {
              "internalType": "string",
              "name": "name",
              "type": "string"
            },
            {
              "internalType": "address",
              "name": "ethAddress",
              "type": "address"
            }
          ],
          "internalType": "struct Kyc.Organization",
          "name": "",
          "type": "tuple"
        }
      ],
      "stateMutability": "view",
      "type": "function",
      "constant": true
    },
    {
      "inputs": [],
      "name": "validOrg",
      "outputs": [
        {
          "internalType": "bool",
          "name": "",
          "type": "bool"
        }
      ],
      "stateMutability": "view",
      "type": "function",
      "constant": true
    },
    {
      "inputs": [],
      "name": "validAdmin",
      "outputs": [
        {
          "internalType": "bool",
          "name": "",
          "type": "bool"
        }
      ],
      "stateMutability": "view",
      "type": "function",
      "constant": true
    },
    {
      "inputs": [],
      "name": "validCust",
      "outputs": [
        {
          "internalType": "bool",
          "name": "",
          "type": "bool"
        }
      ],
      "stateMutability": "view",
      "type": "function",
      "constant": true
    },
    {
      "inputs": [
        {
          "internalType": "address",
          "name": "_custaddress",
          "type": "address"
        },
        {
          "internalType": "string",
          "name": "_jsonHash",
          "type": "string"
        },
        {
          "internalType": "string",
          "name": "_photohash",
          "type": "string"
        },
        {
          "internalType": "string",
          "name": "_citizenship_front_hash",
          "type": "string"
        },
        {
          "internalType": "string",
          "name": "_citizenship_back_hash",
          "type": "string"
        },
        {
          "internalType": "bool",
          "name": "_kycStatus",
          "type": "bool"
        },
        {
          "internalType": "uint256",
          "name": "_d",
          "type": "uint256"
        },
        {
          "internalType": "uint256",
          "name": "_n",
          "type": "uint256"
        }
      ],
      "name": "registerKYC",
      "outputs": [
        {
          "internalType": "bool",
          "name": "",
          "type": "bool"
        }
      ],
      "stateMutability": "nonpayable",
      "type": "function"
    },
    {
      "inputs": [
        {
          "internalType": "address",
          "name": "_custaddress",
          "type": "address"
        }
      ],
      "name": "viewKYC",
      "outputs": [
        {
          "internalType": "bool",
          "name": "",
          "type": "bool"
        },
        {
          "internalType": "string",
          "name": "",
          "type": "string"
        },
        {
          "internalType": "string",
          "name": "",
          "type": "string"
        },
        {
          "internalType": "string",
          "name": "",
          "type": "string"
        },
        {
          "internalType": "string",
          "name": "",
          "type": "string"
        },
        {
          "internalType": "uint256",
          "name": "",
          "type": "uint256"
        },
        {
          "internalType": "uint256",
          "name": "",
          "type": "uint256"
        }
      ],
      "stateMutability": "view",
      "type": "function",
      "constant": true
    },
    {
      "inputs": [],
      "name": "viewYourKYC",
      "outputs": [
        {
          "components": [
            {
              "internalType": "address",
              "name": "custAddress",
              "type": "address"
            },
            {
              "internalType": "string",
              "name": "jsonHash",
              "type": "string"
            },
            {
              "internalType": "string",
              "name": "photoHash",
              "type": "string"
            },
            {
              "internalType": "string",
              "name": "citizenship_front_hash",
              "type": "string"
            },
            {
              "internalType": "string",
              "name": "citizenship_back_hash",
              "type": "string"
            },
            {
              "internalType": "uint256",
              "name": "d",
              "type": "uint256"
            },
            {
              "internalType": "uint256",
              "name": "n",
              "type": "uint256"
            },
            {
              "internalType": "address[]",
              "name": "organization",
              "type": "address[]"
            },
            {
              "internalType": "bool",
              "name": "kycStatus",
              "type": "bool"
            }
          ],
          "internalType": "struct Kyc.Customer",
          "name": "",
          "type": "tuple"
        }
      ],
      "stateMutability": "view",
      "type": "function",
      "constant": true
    },
    {
      "inputs": [],
      "name": "viewOrgWithAccess",
      "outputs": [
        {
          "internalType": "address[]",
          "name": "",
          "type": "address[]"
        }
      ],
      "stateMutability": "view",
      "type": "function",
      "constant": true
    },
    {
      "inputs": [],
      "name": "viewRequestCust",
      "outputs": [
        {
          "components": [
            {
              "internalType": "uint256",
              "name": "req_count",
              "type": "uint256"
            },
            {
              "internalType": "address",
              "name": "Address",
              "type": "address"
            }
          ],
          "internalType": "struct Kyc.kycRequestList[]",
          "name": "",
          "type": "tuple[]"
        }
      ],
      "stateMutability": "view",
      "type": "function",
      "constant": true
    },
    {
      "inputs": [
        {
          "internalType": "address",
          "name": "_custaddress",
          "type": "address"
        },
        {
          "internalType": "string",
          "name": "_jsonHash",
          "type": "string"
        },
        {
          "internalType": "string",
          "name": "_photohash",
          "type": "string"
        },
        {
          "internalType": "string",
          "name": "_citizenship_front_hash",
          "type": "string"
        },
        {
          "internalType": "string",
          "name": "_citizenship_back_hash",
          "type": "string"
        },
        {
          "internalType": "bool",
          "name": "_kycStatus",
          "type": "bool"
        },
        {
          "internalType": "uint256",
          "name": "_d",
          "type": "uint256"
        },
        {
          "internalType": "uint256",
          "name": "_n",
          "type": "uint256"
        }
      ],
      "name": "updateKYC",
      "outputs": [
        {
          "internalType": "bool",
          "name": "",
          "type": "bool"
        }
      ],
      "stateMutability": "nonpayable",
      "type": "function"
    },
    {
      "inputs": [
        {
          "internalType": "address",
          "name": "_custaddress",
          "type": "address"
        }
      ],
      "name": "requestKYC",
      "outputs": [
        {
          "internalType": "bool",
          "name": "",
          "type": "bool"
        }
      ],
      "stateMutability": "nonpayable",
      "type": "function"
    },
    {
      "inputs": [
        {
          "internalType": "uint256",
          "name": "_reqcount",
          "type": "uint256"
        }
      ],
      "name": "deleteRequestOrg",
      "outputs": [
        {
          "internalType": "bool",
          "name": "",
          "type": "bool"
        }
      ],
      "stateMutability": "nonpayable",
      "type": "function"
    },
    {
      "inputs": [
        {
          "internalType": "uint256",
          "name": "_reqcount",
          "type": "uint256"
        },
        {
          "internalType": "address",
          "name": "_ethAddress",
          "type": "address"
        }
      ],
      "name": "deleteRequestCust",
      "outputs": [],
      "stateMutability": "nonpayable",
      "type": "function"
    },
    {
      "inputs": [],
      "name": "listRequest",
      "outputs": [
        {
          "components": [
            {
              "internalType": "uint256",
              "name": "req_count",
              "type": "uint256"
            },
            {
              "internalType": "address",
              "name": "Address",
              "type": "address"
            }
          ],
          "internalType": "struct Kyc.kycRequestList[]",
          "name": "",
          "type": "tuple[]"
        }
      ],
      "stateMutability": "view",
      "type": "function",
      "constant": true
    },
    {
      "inputs": [
        {
          "internalType": "uint256",
          "name": "_reqcount",
          "type": "uint256"
        },
        {
          "internalType": "address",
          "name": "_ethAddress",
          "type": "address"
        },
        {
          "internalType": "bool",
          "name": "_isAllowed",
          "type": "bool"
        }
      ],
      "name": "giveAccessKYC",
      "outputs": [
        {
          "internalType": "bool",
          "name": "",
          "type": "bool"
        }
      ],
      "stateMutability": "nonpayable",
      "type": "function"
    },
    {
      "inputs": [
        {
          "internalType": "address",
          "name": "_ethAddress",
          "type": "address"
        }
      ],
      "name": "revokeAccessKYC",
      "outputs": [
        {
          "internalType": "bool",
          "name": "",
          "type": "bool"
        }
      ],
      "stateMutability": "nonpayable",
      "type": "function"
    },
    {
      "inputs": [
        {
          "internalType": "address",
          "name": "_custaddress",
          "type": "address"
        }
      ],
      "name": "removeKYC",
      "outputs": [
        {
          "internalType": "bool",
          "name": "",
          "type": "bool"
        }
      ],
      "stateMutability": "nonpayable",
      "type": "function"
    }
  ],
  "bytecode": "0x608060405234801561001057600080fd5b50600080546001600160a01b03191633179055612f55806100326000396000f3fe608060405234801561001057600080fd5b50600436106101375760003560e01c8063a1ac9e57116100b8578063ceacabd51161007c578063ceacabd51461026b578063d6bbbf8414610280578063d9b18f0414610288578063e1b2dbe8146102ae578063f3a9b588146102b6578063f851a440146102be57600080fd5b8063a1ac9e571461020a578063a64266e71461021d578063b7e4a42d14610230578063c10cebe614610243578063ca1cbcc21461025657600080fd5b80634f4b4f78116100ff5780634f4b4f78146101b457806354291824146101bc5780637042d70c146101cf57806384f702ee146101e457806388c4ce54146101f757600080fd5b806306e5d4d11461013c578063243f6b58146101645780632a539a221461017757806332722a251461018a5780633b2b8abf1461019f575b600080fd5b61014f61014a366004612743565b6102e9565b60405190151581526020015b60405180910390f35b61014f610172366004612743565b6103e3565b61014f610185366004612775565b6104f2565b610192610744565b60405161015b91906127f7565b6101a7610856565b60405161015b9190612834565b61014f61092d565b61014f6101ca366004612881565b61095e565b6101e26101dd36600461289a565b610adf565b005b61014f6101f2366004612969565b610c7f565b610192610205366004612743565b610da4565b61014f610218366004612a4b565b610f11565b61014f61022b366004612969565b611063565b61014f61023e366004612743565b61115a565b61014f610251366004612743565b611253565b61025e6114c4565b60405161015b9190612a90565b610273611636565b60405161015b9190612b2c565b61014f6119d9565b61029b610296366004612743565b6119f4565b60405161015b9796959493929190612c10565b61014f611ce5565b61025e611d0d565b6000546102d1906001600160a01b031681565b6040516001600160a01b03909116815260200161015b565b3360008181526001602052604081205490916001600160a01b03909116146103695760405162461bcd60e51b815260206004820152602860248201527f596f7520646f6e74206861766520617574686f7269747920746f207265766f6b604482015267652061636365737360c01b60648201526084015b60405180910390fd5b6103733383611e73565b61038f5760405162461bcd60e51b815260040161036090612c7c565b6103993383611f12565b604080513381526001600160a01b03841660208201527fe88c41c4d37804e10d7ea8c3879578b372d9fabc7fd55f30843786e63b024bc991015b60405180910390a1506001919050565b3360008181526002602052604081206001015490916001600160a01b03909116146104205760405162461bcd60e51b815260040161036090612cbd565b6001600160a01b038083166000818152600160205260409020549091161461047f5760405162461bcd60e51b8152602060048201526012602482015271155cd95c88191bd95cdb89dd08195e1a5cdd60721b6044820152606401610360565b6104898233611e73565b6104a55760405162461bcd60e51b815260040161036090612c7c565b6104af8233611f12565b604080516001600160a01b03841681523360208201527fd2bb631b9ffa2bf92c1b926be30d35e0753e89189734d361478d148ce3609ecd91016103d3565b919050565b3360008181526001602052604081205490916001600160a01b039091161461056b5760405162461bcd60e51b815260206004820152602660248201527f596f7520646f6e74206861766520617574686f7269747920746f20676976652060448201526561636365737360d01b6064820152608401610360565b6001600160a01b038316600090815260036020526040902060020180543391908690811061059b5761059b612ce4565b60009182526020909120600160029092020101546001600160a01b0316146105f65760405162461bcd60e51b815260206004820152600e60248201526d155cd95c881b9bdd081d985b1a5960921b6044820152606401610360565b6001600160a01b038316600090815260036020526040902060020180548591908290811061062657610626612ce4565b9060005260206000209060020201600001541461067a5760405162461bcd60e51b815260206004820152601260248201527114995c5d595cdd1cc81b9bdd08199bdd5b9960721b6044820152606401610360565b8115156001036107305761068e3384611e73565b15156000036106d25733600090815260016020818152604083206007018054928301815583529091200180546001600160a01b0319166001600160a01b0385161790555b6106dc8484610adf565b604080518581523360208201526001600160a01b03851681830152831515606082015290517fadbe7f03a7f299dc85504c5aa657355c0e4e2f199bae0b27c64e9cc810e699a99181900360800190a161073a565b61073a8484610adf565b5060019392505050565b604080518082019091526060815260006020820152336000818152600260205260409020600101546001600160a01b0316146107925760405162461bcd60e51b815260040161036090612cbd565b336000908152600260205260409081902081518083019092528054829082906107ba90612cfa565b80601f01602080910402602001604051908101604052809291908181526020018280546107e690612cfa565b80156108335780601f1061080857610100808354040283529160200191610833565b820191906000526020600020905b81548152906001019060200180831161081657829003601f168201915b5050509183525050600191909101546001600160a01b0316602090910152905090565b336000818152600160205260409020546060916001600160a01b03909116146108c15760405162461bcd60e51b815260206004820152601760248201527f596f7520646f6e74206861766520617574686f726974790000000000000000006044820152606401610360565b336000908152600160209081526040918290206007018054835181840281018401909452808452909183018282801561092357602002820191906000526020600020905b81546001600160a01b03168152600190910190602001808311610905575b5050505050905090565b3360008181526002602052604081206001015490916001600160a01b03909116036109585750600190565b50600090565b3360008181526002602052604081206001015490916001600160a01b039091161461099b5760405162461bcd60e51b815260040161036090612cbd565b336000818152600360205260409020546001600160a01b031614610a0b5760405162461bcd60e51b815260206004820152602160248201527f596f7520646f6e74206861766520617574686f7269747920746f2064656c65746044820152606560f81b6064820152608401610360565b336000908152600360205260409020600201805483919082908110610a3257610a32612ce4565b90600052602060002090600202016000015414610a885760405162461bcd60e51b815260206004820152601460248201527314995c5d595cdd08191bd95cdb9d08195e1a5cdd60621b6044820152606401610360565b336000908152600360205260408120600201805484908110610aac57610aac612ce4565b60009182526020909120600160029092020101546001600160a01b03169050610ad683823361200b565b50600192915050565b6001600160a01b0380821660008181526002602052604090206001015490911614610b5f5760405162461bcd60e51b815260206004820152602a60248201527f5468697320706172746963756c6172206f7267616e697a6174696f6e7320646f604482015269195cdb9d08195e1a5cdd60b21b6064820152608401610360565b6001600160a01b0381166000908152600360205260409020600201805433919084908110610b8f57610b8f612ce4565b60009182526020909120600160029092020101546001600160a01b031614610bea5760405162461bcd60e51b815260206004820152600e60248201526d155cd95c881b9bdd081d985b1a5960921b6044820152606401610360565b6001600160a01b0381166000908152600360205260409020600201805483919082908110610c1a57610c1a612ce4565b90600052602060002090600202016000015414610c705760405162461bcd60e51b815260206004820152601460248201527314995c5d595cdd08191bd95cdb9d08195e1a5cdd60621b6044820152606401610360565b610c7b82338361200b565b5050565b3360008181526002602052604081206001015490916001600160a01b0390911614610cbc5760405162461bcd60e51b815260040161036090612cbd565b6001600160a01b03808a1660008181526001602052604090205490911614610d1b5760405162461bcd60e51b8152602060048201526012602482015271155cd95c88191bd95cdb89dd08195e1a5cdd60721b6044820152606401610360565b610d258933611e73565b610d415760405162461bcd60e51b815260040161036090612c7c565b610d5189898989898989896123c3565b604080516001600160a01b038b16815285151560208201527f0c14653fca65d1b22631a36a53bd2a7153579eb0180192d23b52babb69c2805091015b60405180910390a150600198975050505050505050565b6040805180820190915260608152600060208201526000546001600160a01b03163314610de35760405162461bcd60e51b815260040161036090612d34565b6001600160a01b0380831660008181526002602052604090206001015490911614610e435760405162461bcd60e51b815260206004820152601060248201526f13dc99c8191bd95cdb9d08195e1a5cdd60821b6044820152606401610360565b6001600160a01b038216600090815260026020526040908190208151808301909252805482908290610e7490612cfa565b80601f0160208091040260200160405190810160405280929190818152602001828054610ea090612cfa565b8015610eed5780601f10610ec257610100808354040283529160200191610eed565b820191906000526020600020905b815481529060010190602001808311610ed057829003601f168201915b5050509183525050600191909101546001600160a01b031660209091015292915050565b600080546001600160a01b03163314610f3c5760405162461bcd60e51b815260040161036090612d34565b6001600160a01b0380831660008181526002602052604090206001015490911603610f9d5760405162461bcd60e51b815260206004820152601160248201527013dc99c8185b1c9958591e481859191959607a1b6044820152606401610360565b6040805180820182528481526001600160a01b03841660208083018290526000918252600290529190912081518190610fd69082612da7565b50602091820151600191820180546001600160a01b039283166001600160a01b03199182161790915590851660008181526003909452604080852080549093169091178255910191909155517f19cb05bcb9f3a5aa3801619041099231656235762a3599eed02cdcac38facd1c906110519085908590612e67565b60405180910390a15060015b92915050565b3360008181526002602052604081206001015490916001600160a01b03909116146110a05760405162461bcd60e51b815260040161036090612cbd565b6001600160a01b03808a16600081815260016020526040902054909116036111005760405162461bcd60e51b81526020600482015260136024820152725573657220616c72656164792065786973747360681b6044820152606401610360565b61111089898989898989896123c3565b61111989611253565b50604080516001600160a01b038b16815285151560208201527f1d22f26dee56193a2da8b325a26e02b936d68be9f49c0a6f92534464aa8f2ecf9101610d8d565b600080546001600160a01b031633146111855760405162461bcd60e51b815260040161036090612d34565b6001600160a01b03808316600081815260026020526040902060010154909116146111e55760405162461bcd60e51b815260206004820152601060248201526f13dc99c8191bd95cdb9d08195e1a5cdd60821b6044820152606401610360565b6001600160a01b03821660009081526002602052604081209061120882826126d6565b5060010180546001600160a01b03191690556040516001600160a01b03831681527f4630061df51c52d44a3987b904c6ff220da2cbdeff03ce8750cd14652cae0c6c906020016103d3565b3360008181526002602052604081206001015490916001600160a01b03909116146112905760405162461bcd60e51b815260040161036090612cbd565b6001600160a01b03808316600081815260016020526040902054909116146112f35760405162461bcd60e51b8152602060048201526016602482015275437573746f6d657220646f65736e742065786973747360501b6044820152606401610360565b6112fd8233611e73565b156113405760405162461bcd60e51b8152602060048201526013602482015272416c726561647920686176652061636365737360681b6044820152606401610360565b61134982612509565b1561138f5760405162461bcd60e51b81526020600482015260166024820152755265717565737420416c72656164792045786973747360501b6044820152606401610360565b336000818152600360208181526040808420815180830183526001808301805483526001600160a01b038b8116848801818152600296870180548087018255908c52898c2096519088029096019586555194840180549583166001600160a01b03199687161790558952600487528589208651808801909752888852825487528688018b815281548086018355918b52888b2097519190960290960195865593519490910180549490931693909116929092179055938352528154919061145583612ea7565b90915550503360009081526003602052604090206001908101547f218ec21215c511260c909dd233fc0cb1190ef18c6eba8027742533695f40eaad9161149a91612ec0565b604080519182523360208301526001600160a01b03851690820152600060608201526080016103d3565b60606114ce611ce5565b61150f5760405162461bcd60e51b815260206004820152601260248201527110dd5cdd1bdb595c881b9bdd081d985b1a5960721b6044820152606401610360565b3360009081526004602052604081205467ffffffffffffffff811115611537576115376128c6565b60405190808252806020026020018201604052801561157c57816020015b60408051808201909152600080825260208201528152602001906001900390816115555790505b5090506000805b3360009081526004602052604090205481101561162e573360009081526004602052604090208054829081106115bb576115bb612ce4565b60009182526020918290206040805180820190915260029092020180548252600101546001600160a01b031691810191909152835184908490811061160257611602612ce4565b6020026020010181905250818061161890612ea7565b925050808061162690612ea7565b915050611583565b509092915050565b61169060405180610120016040528060006001600160a01b03168152602001606081526020016060815260200160608152602001606081526020016000815260200160008152602001606081526020016000151581525090565b611698611ce5565b6116d95760405162461bcd60e51b815260206004820152601260248201527110dd5cdd1bdb595c881b9bdd081d985b1a5960721b6044820152606401610360565b336000908152600160208181526040928390208351610120810190945280546001600160a01b0316845291820180549184019161171590612cfa565b80601f016020809104026020016040519081016040528092919081815260200182805461174190612cfa565b801561178e5780601f106117635761010080835404028352916020019161178e565b820191906000526020600020905b81548152906001019060200180831161177157829003601f168201915b505050505081526020016002820180546117a790612cfa565b80601f01602080910402602001604051908101604052809291908181526020018280546117d390612cfa565b80156118205780601f106117f557610100808354040283529160200191611820565b820191906000526020600020905b81548152906001019060200180831161180357829003601f168201915b5050505050815260200160038201805461183990612cfa565b80601f016020809104026020016040519081016040528092919081815260200182805461186590612cfa565b80156118b25780601f10611887576101008083540402835291602001916118b2565b820191906000526020600020905b81548152906001019060200180831161189557829003601f168201915b505050505081526020016004820180546118cb90612cfa565b80601f01602080910402602001604051908101604052809291908181526020018280546118f790612cfa565b80156119445780601f1061191957610100808354040283529160200191611944565b820191906000526020600020905b81548152906001019060200180831161192757829003601f168201915b505050505081526020016005820154815260200160068201548152602001600782018054806020026020016040519081016040528092919081815260200182805480156119ba57602002820191906000526020600020905b81546001600160a01b0316815260019091019060200180831161199c575b50505091835250506008919091015460ff161515602090910152919050565b60008054336001600160a01b03909116036109585750600190565b6000606080606080600080611a098833611e73565b611a555760405162461bcd60e51b815260206004820152601e60248201527f55736572206861736e7420676976656e20746865697220636f6e73656e7400006044820152606401610360565b6001600160a01b0388166000908152600160208190526040909120600881015460058201546006830154938301805460ff90931694909360028101936003820193600490920192908690611aa890612cfa565b80601f0160208091040260200160405190810160405280929190818152602001828054611ad490612cfa565b8015611b215780601f10611af657610100808354040283529160200191611b21565b820191906000526020600020905b815481529060010190602001808311611b0457829003601f168201915b50505050509550848054611b3490612cfa565b80601f0160208091040260200160405190810160405280929190818152602001828054611b6090612cfa565b8015611bad5780601f10611b8257610100808354040283529160200191611bad565b820191906000526020600020905b815481529060010190602001808311611b9057829003601f168201915b50505050509450838054611bc090612cfa565b80601f0160208091040260200160405190810160405280929190818152602001828054611bec90612cfa565b8015611c395780601f10611c0e57610100808354040283529160200191611c39565b820191906000526020600020905b815481529060010190602001808311611c1c57829003601f168201915b50505050509350828054611c4c90612cfa565b80601f0160208091040260200160405190810160405280929190818152602001828054611c7890612cfa565b8015611cc55780601f10611c9a57610100808354040283529160200191611cc5565b820191906000526020600020905b815481529060010190602001808311611ca857829003601f168201915b505050505092509650965096509650965096509650919395979092949650565b3360008181526001602052604081205490916001600160a01b03909116036109585750600190565b336000818152600260205260409020600101546060916001600160a01b0390911614611d4b5760405162461bcd60e51b815260040161036090612cbd565b3360009081526003602052604081206001015467ffffffffffffffff811115611d7657611d766128c6565b604051908082528060200260200182016040528015611dbb57816020015b6040805180820190915260008082526020820152815260200190600190039081611d945790505b5090506000805b3360009081526003602052604090206001015481101561162e57336000908152600360205260409020600201805482908110611e0057611e00612ce4565b60009182526020918290206040805180820190915260029092020180548252600101546001600160a01b0316918101919091528351849084908110611e4757611e47612ce4565b60200260200101819052508180611e5d90612ea7565b9250508080611e6b90612ea7565b915050611dc2565b6000805b6001600160a01b03841660009081526001602052604090206007015460ff82161015611f08576001600160a01b03848116600090815260016020526040902060070180549185169160ff8416908110611ed257611ed2612ce4565b6000918252602090912001546001600160a01b031603611ef657600191505061105d565b80611f0081612ed3565b915050611e77565b5060009392505050565b6000611f1e83836125a3565b6001600160a01b0384166000908152600160208190526040909120600701805492935091611f4c9190612ec0565b81548110611f5c57611f5c612ce4565b60009182526020808320909101546001600160a01b03868116845260019092526040909220600701805491909216919083908110611f9c57611f9c612ce4565b600091825260208083209190910180546001600160a01b0319166001600160a01b039485161790559185168152600190915260409020600701805480611fe457611fe4612ef2565b600082815260209020810160001990810180546001600160a01b0319169055019055505050565b6000612017838361263f565b6001600160a01b038316600090815260036020526040902060020180549192509061204490600190612ec0565b8154811061205457612054612ce4565b906000526020600020906002020160036000846001600160a01b03166001600160a01b03168152602001908152602001600020600201858154811061209b5761209b612ce4565b6000918252602080832084546002938402909101908155600194850154940180546001600160a01b0319166001600160a01b039586161790559285168252600390925260409020018054806120f2576120f2612ef2565b60008281526020808220600260001990940193840201828155600190810180546001600160a01b0319169055929093556001600160a01b0386168152600490925260409091208054909161214591612ec0565b8154811061215557612155612ce4565b906000526020600020906002020160046000856001600160a01b03166001600160a01b03168152602001908152602001600020600001828154811061219c5761219c612ce4565b6000918252602080832084546002909302019182556001938401549390910180546001600160a01b0319166001600160a01b0394851617905591851681526004909152604090208054806121f2576121f2612ef2565b60008281526020808220600260001990940184810290910183815560010180546001600160a01b0319169055909355338152600390925260409091200154841480159061225a57506001600160a01b0382166000908152600360205260409020600190810154115b15612350576001600160a01b038216600090815260036020526040902060020180548591908290811061228f5761228f612ce4565b60009182526020808320600292830201939093556001600160a01b03851682526003909252604081209091018054869081106122cd576122cd612ce4565b60009182526020808320600160029093020191909101546001600160a01b031680835260049091526040909120549091501561234e5761230d818461263f565b6001600160a01b0382166000908152600460205260409020805491935086918490811061233c5761233c612ce4565b60009182526020909120600290910201555b505b6001600160a01b038216600090815260036020526040812060010180549161237783612f08565b9091555050604080518581526001600160a01b03841660208201527f5bc31e521401c7e4fbe27cc8e953ddcd66ce6cc84d810d1850450e7964029d95910160405180910390a150505050565b60008751116123d157600080fd5b60008651116123df57600080fd5b60008451116123ed57600080fd5b60008551116123fb57600080fd5b6001600160a01b038816600081815260016020819052604090912080546001600160a01b0319169092178255016124328882612da7565b506001600160a01b03881660009081526001602052604090206002016124588782612da7565b506001600160a01b038816600090815260016020526040902060030161247e8682612da7565b506001600160a01b03881660009081526001602052604090206004016124a48582612da7565b506001600160a01b0397909716600081815260016020818152604080842060088101805460ff19169815159890981790975560058701959095556006909501999099556004909352912090950180546001600160a01b03191690951790945550505050565b6000805b3360009081526003602052604090206001015460ff8216101561259a5733600090815260036020526040902060020180546001600160a01b038516919060ff841690811061255d5761255d612ce4565b60009182526020909120600160029092020101546001600160a01b0316036125885750600192915050565b8061259281612ed3565b91505061250d565b50600092915050565b6000805b6001600160a01b03841660009081526001602052604090206007015460ff82161015612638576001600160a01b03848116600090815260016020526040902060070180549185169160ff841690811061260257612602612ce4565b6000918252602090912001546001600160a01b0316036126265760ff16905061105d565b8061263081612ed3565b9150506125a7565b5092915050565b6000805b6001600160a01b03841660009081526004602052604090205460ff82161015612638576001600160a01b03848116600090815260046020526040902080549185169160ff841690811061269857612698612ce4565b60009182526020909120600160029092020101546001600160a01b0316036126c45760ff16905061105d565b806126ce81612ed3565b915050612643565b5080546126e290612cfa565b6000825580601f106126f2575050565b601f0160209004906000526020600020908101906127109190612713565b50565b5b808211156127285760008155600101612714565b5090565b80356001600160a01b03811681146104ed57600080fd5b60006020828403121561275557600080fd5b61275e8261272c565b9392505050565b803580151581146104ed57600080fd5b60008060006060848603121561278a57600080fd5b8335925061279a6020850161272c565b91506127a860408501612765565b90509250925092565b6000815180845260005b818110156127d7576020818501810151868301820152016127bb565b506000602082860101526020601f19601f83011685010191505092915050565b60208152600082516040602084015261281360608401826127b1565b602094909401516001600160a01b0316604093909301929092525090919050565b6020808252825182820181905260009190848201906040850190845b818110156128755783516001600160a01b031683529284019291840191600101612850565b50909695505050505050565b60006020828403121561289357600080fd5b5035919050565b600080604083850312156128ad57600080fd5b823591506128bd6020840161272c565b90509250929050565b634e487b7160e01b600052604160045260246000fd5b600082601f8301126128ed57600080fd5b813567ffffffffffffffff80821115612908576129086128c6565b604051601f8301601f19908116603f01168101908282118183101715612930576129306128c6565b8160405283815286602085880101111561294957600080fd5b836020870160208301376000602085830101528094505050505092915050565b600080600080600080600080610100898b03121561298657600080fd5b61298f8961272c565b9750602089013567ffffffffffffffff808211156129ac57600080fd5b6129b88c838d016128dc565b985060408b01359150808211156129ce57600080fd5b6129da8c838d016128dc565b975060608b01359150808211156129f057600080fd5b6129fc8c838d016128dc565b965060808b0135915080821115612a1257600080fd5b50612a1f8b828c016128dc565b945050612a2e60a08a01612765565b925060c0890135915060e089013590509295985092959890939650565b60008060408385031215612a5e57600080fd5b823567ffffffffffffffff811115612a7557600080fd5b612a81858286016128dc565b9250506128bd6020840161272c565b602080825282518282018190526000919060409081850190868401855b82811015612adb578151805185528601516001600160a01b0316868501529284019290850190600101612aad565b5091979650505050505050565b600081518084526020808501945080840160005b83811015612b215781516001600160a01b031687529582019590820190600101612afc565b509495945050505050565b60208152612b466020820183516001600160a01b03169052565b60006020830151610120806040850152612b646101408501836127b1565b91506040850151601f1980868503016060870152612b8284836127b1565b93506060870151915080868503016080870152612b9f84836127b1565b935060808701519150808685030160a0870152612bbc84836127b1565b935060a087015160c087015260c087015160e087015260e08701519150610100818786030181880152612bef8584612ae8565b94508088015192505050612c068286018215159052565b5090949350505050565b871515815260e060208201526000612c2b60e08301896127b1565b8281036040840152612c3d81896127b1565b90508281036060840152612c5181886127b1565b90508281036080840152612c6581876127b1565b60a0840195909552505060c0015295945050505050565b60208082526021908201527f596f7520646f6e7420686176652061636365737320746f2074686973207573656040820152603960f91b606082015260800190565b6020808252600d908201526c13dc99c81b9bdd08195e1a5cdd609a1b604082015260600190565b634e487b7160e01b600052603260045260246000fd5b600181811c90821680612d0e57607f821691505b602082108103612d2e57634e487b7160e01b600052602260045260246000fd5b50919050565b6020808252600a908201526941646d696e206f6e6c7960b01b604082015260600190565b601f821115612da257600081815260208120601f850160051c81016020861015612d7f5750805b601f850160051c820191505b81811015612d9e57828155600101612d8b565b5050505b505050565b815167ffffffffffffffff811115612dc157612dc16128c6565b612dd581612dcf8454612cfa565b84612d58565b602080601f831160018114612e0a5760008415612df25750858301515b600019600386901b1c1916600185901b178555612d9e565b600085815260208120601f198616915b82811015612e3957888601518255948401946001909101908401612e1a565b5085821015612e575787850151600019600388901b60f8161c191681555b5050505050600190811b01905550565b604081526000612e7a60408301856127b1565b905060018060a01b03831660208301529392505050565b634e487b7160e01b600052601160045260246000fd5b600060018201612eb957612eb9612e91565b5060010190565b8181038181111561105d5761105d612e91565b600060ff821660ff8103612ee957612ee9612e91565b60010192915050565b634e487b7160e01b600052603160045260246000fd5b600081612f1757612f17612e91565b50600019019056fea264697066735822122073b3af31a0608c6e64c30ce357dd84c27b432c99ce4f0de2d8dff10beb959fcd64736f6c63430008110033",
  "immutableReferences": {},
  "source": "// SPDX-License-Identifier: MIT\r\npragma solidity >=0.4.22 <0.9.0;\r\n\r\ncontract Kyc {\r\n  address public admin;\r\n  struct Customer {\r\n      address custAddress;\r\n      string jsonHash;\r\n      string photoHash;\r\n      string citizenship_front_hash;\r\n      string citizenship_back_hash;\r\n      uint d;\r\n      uint n;\r\n      address[] organization;\r\n      bool kycStatus;\r\n  }\r\n\r\n  struct Organization {\r\n      string name;\r\n      address ethAddress;\r\n  }\r\n\r\n  struct kycRequest{\r\n      address ethAddress;\r\n      uint req_count;\r\n      kycRequestList[] kycrequestlist;\r\n  }\r\n  \r\n  struct kycRequestList{\r\n      uint req_count;\r\n      address Address;\r\n  }\r\n  \r\n  struct kycRequestCust{\r\n      kycRequestList[] kycrequestlist;\r\n      address custAddress;\r\n  }\r\n\r\n  constructor()  {\r\n      admin = msg.sender;\r\n  }\r\n\r\n  mapping(address => Customer) customers;\r\n  mapping(address => Organization) organizations;\r\n  mapping(address => kycRequest) kycrequestsbyorg;\r\n  mapping(address => kycRequestCust) kycrequestsbycust;\r\n\r\n  event orgAdded(string name,address ethAddress);\r\n  event orgRemoved(address ethAddress);\r\n  event customerAdded(address custAddress,bool kycStatus);\r\n  event customerUpdated(address custAddress,bool kycStatus);\r\n  event requestAdded(uint reqid,address ethAddress, address custAddress,bool isAllowed);\r\n  event requestRemoved(uint reqid,address ethAddress);\r\n  event accessGiven(uint reqid,address custAddress,address ethAddress,bool isAllowed);\r\n  event accessRevoked(address custAddress,address ethAddress);\r\n  event kycRemoved(address custAddress,address ethAddress);\r\n\r\n// Checks whether the requestor is admin\r\n  modifier isAdmin {\r\n      require(\r\n          admin == msg.sender,\r\n          \"Admin only\"\r\n      );\r\n      _;\r\n  }\r\n\r\n// Checks wheter the org exists or not\r\n  modifier isOrgValid {\r\n      require(\r\n          organizations[msg.sender].ethAddress == msg.sender,\r\n          \"Org not exist\"    \r\n      );\r\n      _;\r\n  }\r\n\r\n//Check if Org has access to the user KYC\r\n  function findOrg(address _custaddress,address ethAddress) internal view returns(bool){\r\n      uint8 i = 0;\r\n          for(i;i<customers[_custaddress].organization.length;i++){\r\n              if(customers[_custaddress].organization[i]==ethAddress){\r\n                  return true;\r\n              }\r\n          }\r\n          return false;\r\n  }\r\n\r\n//Find the index of Org in KYC.organization array\r\n  function findOrgIndex(address _custaddress,address ethAddress) internal view returns(uint a ){\r\n      uint8 i = 0;\r\n      for(i;i<customers[_custaddress].organization.length;i++){\r\n            if(customers[_custaddress].organization[i]==ethAddress){\r\n                return i;\r\n            }\r\n    }\r\n  }\r\n  \r\n  function findRequestIndex(address _custaddress,address _ethAddress) internal view returns(uint a){\r\n      uint8 i = 0;\r\n      for(i;i<kycrequestsbycust[_custaddress].kycrequestlist.length;i++){\r\n            if(kycrequestsbycust[_custaddress].kycrequestlist[i].Address==_ethAddress){\r\n                return i;\r\n            }\r\n    }\r\n  }\r\n\r\n//Check if request exist \r\n  function findRequest(address _custaddress) internal view returns(bool){\r\n      uint8 i=0;\r\n      for(i;i<kycrequestsbyorg[msg.sender].req_count;i++){\r\n          if(kycrequestsbyorg[msg.sender].kycrequestlist[i].Address==_custaddress){\r\n              return true;\r\n          }\r\n      }\r\n      return false;\r\n  }\r\n\r\n//Add organization ONLY BY ADMIN\r\n  function addOrg(string memory _name,address _ethAddress) public isAdmin returns(bool) {\r\n      require(organizations[_ethAddress].ethAddress!=_ethAddress,\"Org already added\");\r\n      organizations[_ethAddress]=Organization(_name,_ethAddress);\r\n      kycrequestsbyorg[_ethAddress].ethAddress=_ethAddress;\r\n      kycrequestsbyorg[_ethAddress].req_count=0;\r\n      emit orgAdded(_name,_ethAddress);\r\n      return true;\r\n  }\r\n\r\n//Remove Organization ONLY BY ADMIN \r\n  function removeOrg(address _ethAddress) public isAdmin returns(bool) {\r\n      require(organizations[_ethAddress].ethAddress==_ethAddress,\"Org doesnt exist\");\r\n      delete organizations[_ethAddress];\r\n      emit orgRemoved(_ethAddress);\r\n      return true;\r\n  }\r\n\r\n//Return Organization Info if it exists  \r\n  function viewOrg(address _ethAddress)public isAdmin view returns(Organization memory){\r\n      require(organizations[_ethAddress].ethAddress==_ethAddress,\"Org doesnt exist\");\r\n      return organizations[_ethAddress];\r\n  }\r\n\r\n  function getYourOrgDetail() public isOrgValid view returns(Organization memory){\r\n    return organizations[msg.sender];\r\n  }\r\n\r\n  function validOrg() public view returns(bool){\r\n    if(organizations[msg.sender].ethAddress==msg.sender){\r\n      return true;\r\n    }\r\n    else{\r\n      return false;\r\n    }\r\n  }\r\n  function validAdmin() public view returns(bool){\r\n    if(admin==msg.sender){\r\n      return true;\r\n    }\r\n    else{\r\n      return false;\r\n    }\r\n  }\r\n  function validCust() public view returns(bool){\r\n    if(customers[msg.sender].custAddress==msg.sender){\r\n      return true;\r\n    }\r\n    else{\r\n      return false;\r\n    }\r\n  }\r\n\r\n  function writeKYC(\r\n    address _custaddress,\r\n    string memory _jsonHash,\r\n    string memory _photohash,\r\n    string memory _citizenship_front_hash,\r\n    string memory _citizenship_back_hash,\r\n    bool _kycStatus,\r\n    uint _d,\r\n    uint _n) internal {\r\n      require(bytes(_jsonHash).length > 0);\r\n      require(bytes(_photohash).length > 0);\r\n      require(bytes(_citizenship_back_hash).length > 0);\r\n      require(bytes(_citizenship_front_hash).length > 0);\r\n      customers[_custaddress].custAddress=_custaddress;\r\n      customers[_custaddress].jsonHash=_jsonHash;\r\n      customers[_custaddress].photoHash=_photohash;\r\n      customers[_custaddress].citizenship_front_hash=_citizenship_front_hash;\r\n      customers[_custaddress].citizenship_back_hash=_citizenship_back_hash;\r\n      customers[_custaddress].kycStatus=_kycStatus;\r\n      customers[_custaddress].d=_d;\r\n      customers[_custaddress].n=_n;\r\n      kycrequestsbycust[_custaddress].custAddress=_custaddress;\r\n  }\r\n\r\n//Register User KYC by registered Orgs\r\n  function registerKYC(\r\n    address _custaddress,\r\n    string memory _jsonHash,\r\n    string memory _photohash,\r\n    string memory _citizenship_front_hash,\r\n    string memory _citizenship_back_hash,\r\n    bool _kycStatus,\r\n    uint _d,\r\n    uint _n) public isOrgValid returns(bool){\r\n      require(customers[_custaddress].custAddress!=_custaddress,\"User already exists\");\r\n      writeKYC(_custaddress,_jsonHash,_photohash,_citizenship_front_hash,_citizenship_back_hash,_kycStatus,_d,_n);\r\n      requestKYC(_custaddress);\r\n      emit customerAdded(_custaddress,_kycStatus);\r\n      return true;\r\n  }\r\n\r\n//View User KYC by Authorized Orgs  \r\n  function viewKYC(address _custaddress) public view \r\n  returns(\r\n    bool,\r\n    string memory,\r\n    string memory,\r\n    string memory,\r\n    string memory,\r\n    uint,\r\n    uint)\r\n  {\r\n      require(findOrg(_custaddress,msg.sender),\"User hasnt given their consent\");\r\n      return(customers[_custaddress].kycStatus,customers[_custaddress].jsonHash,customers[_custaddress].photoHash,customers[_custaddress].citizenship_front_hash,customers[_custaddress].citizenship_back_hash,customers[_custaddress].d,customers[_custaddress].n);\r\n  }\r\n  \r\n  function viewYourKYC() public view returns(Customer memory){\r\n      require(validCust(),'Customer not valid');\r\n      return customers[msg.sender];\r\n  }\r\n\r\n  function viewOrgWithAccess() public view returns(address[] memory){\r\n      require(customers[msg.sender].custAddress==msg.sender,\"You dont have authority\");\r\n      return customers[msg.sender].organization;\r\n  }\r\n  \r\n  \r\n  function viewRequestCust() public view returns(kycRequestList[] memory){\r\n      require(validCust(),'Customer not valid');\r\n      kycRequestList[] memory ret =  new kycRequestList[](kycrequestsbycust[msg.sender].kycrequestlist.length);\r\n      uint j = 0;\r\n        for (uint i = 0; i < kycrequestsbycust[msg.sender].kycrequestlist.length; i++) {\r\n            ret[j] = kycrequestsbycust[msg.sender].kycrequestlist[i];\r\n            j++;\r\n                \r\n        }\r\n    return (ret);\r\n  }\r\n\r\n//Update User KYC by registered and authorized orgs\r\n  function updateKYC(\r\n    address _custaddress,\r\n    string memory _jsonHash,\r\n    string memory _photohash,\r\n    string memory _citizenship_front_hash,\r\n    string memory _citizenship_back_hash,\r\n    bool _kycStatus,\r\n    uint _d,\r\n    uint _n) public isOrgValid returns(bool){\r\n      require(customers[_custaddress].custAddress==_custaddress,\"User doesn't exist\");\r\n      require(findOrg(_custaddress,msg.sender),\"You dont have access to this user\");\r\n      writeKYC(_custaddress,_jsonHash,_photohash,_citizenship_front_hash,_citizenship_back_hash,_kycStatus,_d,_n);\r\n      emit customerUpdated(_custaddress,_kycStatus);\r\n      return true;\r\n  }\r\n\r\n//Request User KYC by Orgs  \r\n  function requestKYC(address _custaddress) public isOrgValid returns(bool){\r\n      require(customers[_custaddress].custAddress==_custaddress,\"Customer doesnt exists\");\r\n      require(findOrg(_custaddress,msg.sender)==false,\"Already have access\");\r\n      require(findRequest(_custaddress)==false,\"Request Already Exists\");\r\n      kycrequestsbyorg[msg.sender].kycrequestlist.push(kycRequestList(kycrequestsbyorg[msg.sender].req_count,_custaddress));\r\n      kycrequestsbycust[_custaddress].kycrequestlist.push(kycRequestList(kycrequestsbyorg[msg.sender].req_count,msg.sender));\r\n      kycrequestsbyorg[msg.sender].req_count++;\r\n      emit requestAdded(kycrequestsbyorg[msg.sender].req_count-1,msg.sender,_custaddress,false);\r\n      return true;\r\n  }\r\n  \r\n  function deleteRequest(uint _reqcount,address _custaddress,address _ethAddress) internal{\r\n    uint index = findRequestIndex(_custaddress,_ethAddress);\r\n    kycrequestsbyorg[_ethAddress].kycrequestlist[_reqcount]=kycrequestsbyorg[_ethAddress].kycrequestlist[kycrequestsbyorg[_ethAddress].kycrequestlist.length-1];\r\n    kycrequestsbyorg[_ethAddress].kycrequestlist.pop();\r\n    kycrequestsbycust[_custaddress].kycrequestlist[index]=kycrequestsbycust[_custaddress].kycrequestlist[kycrequestsbycust[_custaddress].kycrequestlist.length-1];\r\n    kycrequestsbycust[_custaddress].kycrequestlist.pop();\r\n    if(kycrequestsbyorg[msg.sender].kycrequestlist.length!=_reqcount && kycrequestsbyorg[_ethAddress].req_count>1){\r\n        kycrequestsbyorg[_ethAddress].kycrequestlist[_reqcount].req_count=_reqcount;\r\n        address add = kycrequestsbyorg[_ethAddress].kycrequestlist[_reqcount].Address;\r\n        if(kycrequestsbycust[add].kycrequestlist.length>0){\r\n            index = findRequestIndex(add, _ethAddress);\r\n            kycrequestsbycust[add].kycrequestlist[index].req_count=_reqcount;\r\n        }\r\n        \r\n     }\r\n    kycrequestsbyorg[_ethAddress].req_count--;\r\n    emit requestRemoved(_reqcount,_ethAddress);\r\n  }\r\n\r\n//Delete User KYC request by organization\r\n  function deleteRequestOrg(uint _reqcount) public isOrgValid returns(bool){\r\n    require(kycrequestsbyorg[msg.sender].ethAddress==msg.sender,\"You dont have authority to delete\");\r\n    require(kycrequestsbyorg[msg.sender].kycrequestlist[_reqcount].req_count==_reqcount,\"Request doesnt exist\");\r\n    address _custaddress = kycrequestsbyorg[msg.sender].kycrequestlist[_reqcount].Address;\r\n    deleteRequest(_reqcount,_custaddress,msg.sender);\r\n    return true;\r\n  }\r\n\r\n//Delete User KYC Request after user provides access \r\n  function deleteRequestCust(uint _reqcount,address _ethAddress) public{\r\n      require(organizations[_ethAddress].ethAddress==_ethAddress,\"This particular organizations doesnt exist\");\r\n      require(kycrequestsbyorg[_ethAddress].kycrequestlist[_reqcount].Address==msg.sender,\"User not valid\");\r\n      require(kycrequestsbyorg[_ethAddress].kycrequestlist[_reqcount].req_count==_reqcount,\"Request doesnt exist\");\r\n      deleteRequest(_reqcount,msg.sender,_ethAddress);\r\n  }\r\n\r\n\r\n\r\n//Return Array of all pending request of the orgs\r\n  function listRequest() public isOrgValid view returns(kycRequestList[] memory){\r\n      kycRequestList[] memory ret =  new kycRequestList[](kycrequestsbyorg[msg.sender].req_count);\r\n      uint j = 0;\r\n        for (uint i = 0; i < kycrequestsbyorg[msg.sender].req_count; i++) {\r\n            ret[j] = kycrequestsbyorg[msg.sender].kycrequestlist[i];\r\n            j++;\r\n                \r\n        }\r\n    return (ret);\r\n  }\r\n\r\n//Give User KYC access to Org\r\n  function giveAccessKYC(uint _reqcount,address _ethAddress,bool _isAllowed) public returns(bool){\r\n      require(customers[msg.sender].custAddress==msg.sender,\"You dont have authority to give access\");\r\n      require(kycrequestsbyorg[_ethAddress].kycrequestlist[_reqcount].Address==msg.sender,\"User not valid\");\r\n      require(kycrequestsbyorg[_ethAddress].kycrequestlist[_reqcount].req_count==_reqcount,\"Requests not found\");\r\n      if(_isAllowed == true){\r\n          if(findOrg(msg.sender,_ethAddress) == false){\r\n              customers[msg.sender].organization.push(_ethAddress);\r\n          }\r\n          deleteRequestCust(_reqcount,_ethAddress);\r\n          emit accessGiven(_reqcount,msg.sender,_ethAddress,_isAllowed);\r\n      }\r\n      else{\r\n          deleteRequestCust(_reqcount,_ethAddress);\r\n      }\r\n      return true;\r\n      \r\n  }\r\n  \r\n  function remove(address _custaddress,address _ethAddress) internal {\r\n      uint i=findOrgIndex(_custaddress,_ethAddress);\r\n      customers[_custaddress].organization[i]=customers[_custaddress].organization[customers[_custaddress].organization.length-1];\r\n      customers[_custaddress].organization.pop();\r\n  }\r\n\r\n//Revoke User KYC access of Orgs\r\n  function revokeAccessKYC(address _ethAddress) public returns(bool){\r\n      require(customers[msg.sender].custAddress==msg.sender,\"You dont have authority to revoke access\");\r\n      require(findOrg(msg.sender,_ethAddress),\"You dont have access to this user\");\r\n      remove(msg.sender,_ethAddress);\r\n      emit accessRevoked(msg.sender,_ethAddress);\r\n      return true;\r\n  }\r\n\r\n//Remove User KYC by Orgs  \r\n  function removeKYC(address _custaddress) public isOrgValid returns (bool){\r\n      require(customers[_custaddress].custAddress==_custaddress,\"User doesn't exist\");\r\n      require(findOrg(_custaddress,msg.sender),\"You dont have access to this user\");\r\n      remove(_custaddress,msg.sender);\r\n      emit kycRemoved(_custaddress,msg.sender);\r\n      return true;\r\n  }\r\n  \r\n}\r\n",
  "sourcePath": "D:\\3eme\\kyc_blockchain\\contracts\\Kyc.sol",
  "compiler": {
    "name": "solc",
    "version": "0.8.17+commit.8df45f5f.Emscripten.clang"
  },
  "schemaVersion": "3.4.11",
  "updatedAt": "2022-12-06T19:45:42.460Z",
  "networkType": "ethereum",
  "devdoc": {
    "kind": "dev",
    "methods": {},
    "version": 1
  },
  "userdoc": {
    "kind": "user",
    "methods": {},
    "version": 1
  }
}