{
  "contractName": "KYC",
  "abi": [
    {
      "inputs": [],
      "payable": false,
      "stateMutability": "nonpayable",
      "type": "constructor"
    },
    {
      "anonymous": false,
      "inputs": [
        {
          "indexed": false,
          "internalType": "string",
          "name": "name",
          "type": "string"
        },
        {
          "indexed": false,
          "internalType": "string",
          "name": "email",
          "type": "string"
        },
        {
          "indexed": false,
          "internalType": "uint256",
          "name": "bankCode",
          "type": "uint256"
        },
        {
          "indexed": false,
          "internalType": "address",
          "name": "bankAdress",
          "type": "address"
        },
        {
          "indexed": false,
          "internalType": "uint16",
          "name": "kycCount",
          "type": "uint16"
        },
        {
          "indexed": false,
          "internalType": "uint256",
          "name": "status",
          "type": "uint256"
        }
      ],
      "name": "addBankE",
      "type": "event"
    },
    {
      "anonymous": false,
      "inputs": [
        {
          "indexed": false,
          "internalType": "uint256",
          "name": "cin",
          "type": "uint256"
        },
        {
          "indexed": false,
          "internalType": "string",
          "name": "name",
          "type": "string"
        },
        {
          "indexed": false,
          "internalType": "string",
          "name": "email",
          "type": "string"
        },
        {
          "indexed": false,
          "internalType": "uint256",
          "name": "mobileNumber",
          "type": "uint256"
        },
        {
          "indexed": false,
          "internalType": "string",
          "name": "description",
          "type": "string"
        },
        {
          "indexed": false,
          "internalType": "uint256",
          "name": "timestamp",
          "type": "uint256"
        },
        {
          "indexed": false,
          "internalType": "uint256",
          "name": "status",
          "type": "uint256"
        }
      ],
      "name": "addCustomerE",
      "type": "event"
    },
    {
      "anonymous": false,
      "inputs": [
        {
          "indexed": false,
          "internalType": "uint256",
          "name": "id",
          "type": "uint256"
        },
        {
          "indexed": false,
          "internalType": "uint256",
          "name": "cin",
          "type": "uint256"
        },
        {
          "indexed": false,
          "internalType": "uint256",
          "name": "bankCode",
          "type": "uint256"
        },
        {
          "indexed": false,
          "internalType": "uint256",
          "name": "timestamp",
          "type": "uint256"
        },
        {
          "indexed": false,
          "internalType": "uint256",
          "name": "status",
          "type": "uint256"
        },
        {
          "indexed": false,
          "internalType": "string",
          "name": "description",
          "type": "string"
        }
      ],
      "name": "addKycReqE",
      "type": "event"
    },
    {
      "constant": true,
      "inputs": [],
      "name": "owner",
      "outputs": [
        {
          "internalType": "address",
          "name": "",
          "type": "address"
        }
      ],
      "payable": false,
      "stateMutability": "view",
      "type": "function"
    },
    {
      "constant": false,
      "inputs": [
        {
          "internalType": "uint256",
          "name": "cin",
          "type": "uint256"
        },
        {
          "internalType": "string",
          "name": "name",
          "type": "string"
        },
        {
          "internalType": "string",
          "name": "email",
          "type": "string"
        },
        {
          "internalType": "uint256",
          "name": "mobileNumber",
          "type": "uint256"
        },
        {
          "internalType": "string",
          "name": "description",
          "type": "string"
        }
      ],
      "name": "addCustomer",
      "outputs": [],
      "payable": false,
      "stateMutability": "nonpayable",
      "type": "function"
    },
    {
      "constant": true,
      "inputs": [],
      "name": "getAllCustomers",
      "outputs": [
        {
          "components": [
            {
              "internalType": "uint256",
              "name": "cin",
              "type": "uint256"
            },
            {
              "internalType": "string",
              "name": "name",
              "type": "string"
            },
            {
              "internalType": "string",
              "name": "email",
              "type": "string"
            },
            {
              "internalType": "uint256",
              "name": "mobileNumber",
              "type": "uint256"
            },
            {
              "internalType": "string",
              "name": "description",
              "type": "string"
            },
            {
              "internalType": "uint256",
              "name": "timestamp",
              "type": "uint256"
            },
            {
              "internalType": "uint256",
              "name": "status",
              "type": "uint256"
            }
          ],
          "internalType": "struct KYC.customer[]",
          "name": "CS",
          "type": "tuple[]"
        }
      ],
      "payable": false,
      "stateMutability": "view",
      "type": "function"
    },
    {
      "constant": true,
      "inputs": [
        {
          "internalType": "uint256",
          "name": "c",
          "type": "uint256"
        }
      ],
      "name": "getCustomerByCIN",
      "outputs": [
        {
          "components": [
            {
              "internalType": "uint256",
              "name": "cin",
              "type": "uint256"
            },
            {
              "internalType": "string",
              "name": "name",
              "type": "string"
            },
            {
              "internalType": "string",
              "name": "email",
              "type": "string"
            },
            {
              "internalType": "uint256",
              "name": "mobileNumber",
              "type": "uint256"
            },
            {
              "internalType": "string",
              "name": "description",
              "type": "string"
            },
            {
              "internalType": "uint256",
              "name": "timestamp",
              "type": "uint256"
            },
            {
              "internalType": "uint256",
              "name": "status",
              "type": "uint256"
            }
          ],
          "internalType": "struct KYC.customer",
          "name": "CS",
          "type": "tuple"
        }
      ],
      "payable": false,
      "stateMutability": "view",
      "type": "function"
    },
    {
      "constant": true,
      "inputs": [
        {
          "internalType": "uint256",
          "name": "c",
          "type": "uint256"
        }
      ],
      "name": "getStateOfCustomer",
      "outputs": [
        {
          "internalType": "uint256",
          "name": "stat",
          "type": "uint256"
        }
      ],
      "payable": false,
      "stateMutability": "view",
      "type": "function"
    },
    {
      "constant": true,
      "inputs": [],
      "name": "getCustomersCount",
      "outputs": [
        {
          "internalType": "uint256",
          "name": "",
          "type": "uint256"
        }
      ],
      "payable": false,
      "stateMutability": "view",
      "type": "function"
    },
    {
      "constant": false,
      "inputs": [
        {
          "internalType": "string",
          "name": "name",
          "type": "string"
        },
        {
          "internalType": "string",
          "name": "email",
          "type": "string"
        },
        {
          "internalType": "uint256",
          "name": "bankCode",
          "type": "uint256"
        },
        {
          "internalType": "address",
          "name": "bankAdress",
          "type": "address"
        }
      ],
      "name": "addBank",
      "outputs": [],
      "payable": false,
      "stateMutability": "nonpayable",
      "type": "function"
    },
    {
      "constant": true,
      "inputs": [],
      "name": "getAllBanks",
      "outputs": [
        {
          "components": [
            {
              "internalType": "string",
              "name": "name",
              "type": "string"
            },
            {
              "internalType": "string",
              "name": "email",
              "type": "string"
            },
            {
              "internalType": "uint256",
              "name": "bankCode",
              "type": "uint256"
            },
            {
              "internalType": "address",
              "name": "bankAdress",
              "type": "address"
            },
            {
              "internalType": "uint16",
              "name": "kycCount",
              "type": "uint16"
            },
            {
              "internalType": "uint256",
              "name": "status",
              "type": "uint256"
            }
          ],
          "internalType": "struct KYC.bank[]",
          "name": "",
          "type": "tuple[]"
        }
      ],
      "payable": false,
      "stateMutability": "view",
      "type": "function"
    },
    {
      "constant": true,
      "inputs": [
        {
          "internalType": "uint256",
          "name": "c",
          "type": "uint256"
        }
      ],
      "name": "getBankBybankCode",
      "outputs": [
        {
          "components": [
            {
              "internalType": "string",
              "name": "name",
              "type": "string"
            },
            {
              "internalType": "string",
              "name": "email",
              "type": "string"
            },
            {
              "internalType": "uint256",
              "name": "bankCode",
              "type": "uint256"
            },
            {
              "internalType": "address",
              "name": "bankAdress",
              "type": "address"
            },
            {
              "internalType": "uint16",
              "name": "kycCount",
              "type": "uint16"
            },
            {
              "internalType": "uint256",
              "name": "status",
              "type": "uint256"
            }
          ],
          "internalType": "struct KYC.bank",
          "name": "BN",
          "type": "tuple"
        }
      ],
      "payable": false,
      "stateMutability": "view",
      "type": "function"
    },
    {
      "constant": true,
      "inputs": [
        {
          "internalType": "uint256",
          "name": "c",
          "type": "uint256"
        }
      ],
      "name": "getStateOfBank",
      "outputs": [
        {
          "internalType": "uint256",
          "name": "stat",
          "type": "uint256"
        }
      ],
      "payable": false,
      "stateMutability": "view",
      "type": "function"
    },
    {
      "constant": true,
      "inputs": [],
      "name": "getBanksCount",
      "outputs": [
        {
          "internalType": "uint256",
          "name": "",
          "type": "uint256"
        }
      ],
      "payable": false,
      "stateMutability": "view",
      "type": "function"
    },
    {
      "constant": false,
      "inputs": [
        {
          "internalType": "uint256",
          "name": "id",
          "type": "uint256"
        },
        {
          "internalType": "uint256",
          "name": "cin",
          "type": "uint256"
        },
        {
          "internalType": "uint256",
          "name": "bankCode",
          "type": "uint256"
        },
        {
          "internalType": "string",
          "name": "description",
          "type": "string"
        }
      ],
      "name": "addKycReq",
      "outputs": [],
      "payable": false,
      "stateMutability": "nonpayable",
      "type": "function"
    },
    {
      "constant": true,
      "inputs": [
        {
          "internalType": "uint256",
          "name": "id",
          "type": "uint256"
        }
      ],
      "name": "approvingKycReq",
      "outputs": [
        {
          "components": [
            {
              "internalType": "uint256",
              "name": "id",
              "type": "uint256"
            },
            {
              "internalType": "uint256",
              "name": "cin",
              "type": "uint256"
            },
            {
              "internalType": "uint256",
              "name": "bankCode",
              "type": "uint256"
            },
            {
              "internalType": "uint256",
              "name": "timestamp",
              "type": "uint256"
            },
            {
              "internalType": "uint256",
              "name": "status",
              "type": "uint256"
            },
            {
              "internalType": "string",
              "name": "description",
              "type": "string"
            }
          ],
          "internalType": "struct KYC.kycReq",
          "name": "kyc_temp",
          "type": "tuple"
        }
      ],
      "payable": false,
      "stateMutability": "view",
      "type": "function"
    },
    {
      "constant": true,
      "inputs": [],
      "name": "getKycReqs",
      "outputs": [
        {
          "components": [
            {
              "internalType": "uint256",
              "name": "id",
              "type": "uint256"
            },
            {
              "internalType": "uint256",
              "name": "cin",
              "type": "uint256"
            },
            {
              "internalType": "uint256",
              "name": "bankCode",
              "type": "uint256"
            },
            {
              "internalType": "uint256",
              "name": "timestamp",
              "type": "uint256"
            },
            {
              "internalType": "uint256",
              "name": "status",
              "type": "uint256"
            },
            {
              "internalType": "string",
              "name": "description",
              "type": "string"
            }
          ],
          "internalType": "struct KYC.kycReq[]",
          "name": "kycreqs",
          "type": "tuple[]"
        }
      ],
      "payable": false,
      "stateMutability": "view",
      "type": "function"
    },
    {
      "constant": true,
      "inputs": [
        {
          "internalType": "uint256",
          "name": "c",
          "type": "uint256"
        }
      ],
      "name": "getKycReqByCIN",
      "outputs": [
        {
          "components": [
            {
              "internalType": "uint256",
              "name": "id",
              "type": "uint256"
            },
            {
              "internalType": "uint256",
              "name": "cin",
              "type": "uint256"
            },
            {
              "internalType": "uint256",
              "name": "bankCode",
              "type": "uint256"
            },
            {
              "internalType": "uint256",
              "name": "timestamp",
              "type": "uint256"
            },
            {
              "internalType": "uint256",
              "name": "status",
              "type": "uint256"
            },
            {
              "internalType": "string",
              "name": "description",
              "type": "string"
            }
          ],
          "internalType": "struct KYC.kycReq",
          "name": "kycreq",
          "type": "tuple"
        }
      ],
      "payable": false,
      "stateMutability": "view",
      "type": "function"
    },
    {
      "constant": true,
      "inputs": [
        {
          "internalType": "uint256",
          "name": "c",
          "type": "uint256"
        }
      ],
      "name": "getKycReqByBankCode",
      "outputs": [
        {
          "components": [
            {
              "internalType": "uint256",
              "name": "id",
              "type": "uint256"
            },
            {
              "internalType": "uint256",
              "name": "cin",
              "type": "uint256"
            },
            {
              "internalType": "uint256",
              "name": "bankCode",
              "type": "uint256"
            },
            {
              "internalType": "uint256",
              "name": "timestamp",
              "type": "uint256"
            },
            {
              "internalType": "uint256",
              "name": "status",
              "type": "uint256"
            },
            {
              "internalType": "string",
              "name": "description",
              "type": "string"
            }
          ],
          "internalType": "struct KYC.kycReq",
          "name": "kycreq",
          "type": "tuple"
        }
      ],
      "payable": false,
      "stateMutability": "view",
      "type": "function"
    },
    {
      "constant": true,
      "inputs": [
        {
          "internalType": "uint256",
          "name": "c",
          "type": "uint256"
        }
      ],
      "name": "getStateOfKycReq",
      "outputs": [
        {
          "internalType": "uint256",
          "name": "status",
          "type": "uint256"
        }
      ],
      "payable": false,
      "stateMutability": "view",
      "type": "function"
    },
    {
      "constant": true,
      "inputs": [],
      "name": "getKycReqCount",
      "outputs": [
        {
          "internalType": "uint256",
          "name": "nbr",
          "type": "uint256"
        }
      ],
      "payable": false,
      "stateMutability": "view",
      "type": "function"
    }
  ],
  "bytecode": "0x6080604052600080546001600160a01b0319163317905534801561002257600080fd5b5060006002819055600455611eab8061003c6000396000f3fe608060405234801561001057600080fd5b50600436106101155760003560e01c8063730e3f8d116100a2578063af791e2911610071578063af791e2914610228578063d42d5fdf1461023d578063daf1978d14610250578063eeb3f5e014610263578063f00f902c1461027657610115565b8063730e3f8d146101d65780637da67ba8146101e95780638da5cb5b146101fe578063951c8a071461021357610115565b80633656cc67116100e95780633656cc671461018d578063484e50c0146101a05780635f75b31f146101a857806360bda642146101bb57806368ac61f1146101ce57610115565b8062ec44781461011a578063182bc63f14610143578063186de7be146101585780631e9d627f14610178575b600080fd5b61012d6101283660046116f9565b610296565b60405161013a9190611c6b565b60405180910390f35b61014b6104fe565b60405161013a9190611c8d565b61016b6101663660046116f9565b610505565b60405161013a9190611c7c565b61018b610186366004611669565b61064a565b005b61014b61019b3660046116f9565b61079a565b61014b6107fd565b61018b6101b63660046117dc565b610803565b61016b6101c93660046116f9565b610989565b61014b6109d9565b61014b6101e43660046116f9565b6109df565b6101f1610a63565b60405161013a9190611bd2565b610206610cb2565b60405161013a9190611bb3565b61021b610cc1565b60405161013a9190611bc1565b610230610e86565b60405161013a9190611be3565b61018b61024b36600461171f565b610fb0565b61014b61025e3660046116f9565b61110d565b61016b6102713660046116f9565b611170565b6102896102843660046116f9565b6112cb565b60405161013a9190611c5a565b61029e6114ab565b60005b6002548110156104f75782600182815481106102b957fe5b90600052602060002090600702016000015414156104ef57600181815481106102de57fe5b90600052602060002090600702016040518060e001604052908160008201548152602001600182018054600181600116156101000203166002900480601f01602080910402602001604051908101604052809291908181526020018280546001816001161561010002031660029004801561039a5780601f1061036f5761010080835404028352916020019161039a565b820191906000526020600020905b81548152906001019060200180831161037d57829003601f168201915b5050509183525050600282810180546040805160206001841615610100026000190190931694909404601f8101839004830285018301909152808452938101939083018282801561042c5780601f106104015761010080835404028352916020019161042c565b820191906000526020600020905b81548152906001019060200180831161040f57829003601f168201915b5050509183525050600382015460208083019190915260048301805460408051601f600260001961010060018716150201909416939093049283018590048502810185018252828152940193928301828280156104ca5780601f1061049f576101008083540402835291602001916104ca565b820191906000526020600020905b8154815290600101906020018083116104ad57829003601f168201915b50505050508152602001600582015481526020016006820154815250509150506104f9565b6001016102a1565b505b919050565b6002545b90565b61050d6114e8565b60005b6006548110156104f757826005828154811061052857fe5b9060005260206000209060060201600101541415610642576005818154811061054d57fe5b90600052602060002090600602016040518060c00160405290816000820154815260200160018201548152602001600282015481526020016003820154815260200160048201548152602001600582018054600181600116156101000203166002900480601f0160208091040260200160405190810160405280929190818152602001828054600181600116156101000203166002900480156106315780601f1061060657610100808354040283529160200191610631565b820191906000526020600020905b81548152906001019060200180831161061457829003601f168201915b5050505050815250509150506104f9565b600101610510565b6004805460019081019091556040805160c08101825286815260208082018790529181018590526001600160a01b038416606082015260006080820181905260a08201819052600380549485018082559152815180519194929360059093027fc2575a0e9e593c00f959f8c92f12db2869c3395a3b0502d05e2516446f71f85b01926106db9284929091019061151e565b5060208281015180516106f4926001850192019061151e565b5060408281015160028301556060830151600383018054608086015161ffff16600160a01b0261ffff60a01b196001600160a01b039094166001600160a01b0319909216919091179290921691909117905560a090920151600490910155517ff0d7a0018fee6def67e50a8bedaf194d3613f2ac6b1dc1490836bacf67291f3f915061078c9086908690869086906000908190611bf4565b60405180910390a150505050565b6000805b6004548110156104f75782600382815481106107b657fe5b90600052602060002090600502016002015414156107f557600381815481106107db57fe5b9060005260206000209060050201600401549150506104f9565b60010161079e565b60045490565b60068054600190810182556040805160c0810182528781526020808201888152928201878152426060840190815260006080850181815260a086018a815260058054998a0180825593528651989099027f036b6384b5eca791c62761152d0c79bb0604c104a5fb6f4eb0703f3154bb3db0810198895596517f036b6384b5eca791c62761152d0c79bb0604c104a5fb6f4eb0703f3154bb3db188015592517f036b6384b5eca791c62761152d0c79bb0604c104a5fb6f4eb0703f3154bb3db287015590517f036b6384b5eca791c62761152d0c79bb0604c104a5fb6f4eb0703f3154bb3db386015590517f036b6384b5eca791c62761152d0c79bb0604c104a5fb6f4eb0703f3154bb3db48501559451805192949361094b937f036b6384b5eca791c62761152d0c79bb0604c104a5fb6f4eb0703f3154bb3db590910192919091019061151e565b505050507fddd05999853cdc6bc440bee16ef6a6a2ba7c3c57ee7f832d76cb035b2f77956f8484844260008660405161078c96959493929190611d18565b6109916114e8565b60005b6006548110156104f75782600582815481106109ac57fe5b90600052602060002090600602016002015414156109d1576005818154811061054d57fe5b600101610994565b60065490565b6000805b6002548110156104f75782600182815481106109fb57fe5b9060005260206000209060070201600001541415610a5b5760018181548110610a2057fe5b906000526020600020906007020160060154915060018181548110610a4157fe5b9060005260206000209060070201600601549150506104f9565b6001016109e3565b60606001805480602002602001604051908101604052809291908181526020016000905b82821015610ca957838290600052602060002090600702016040518060e001604052908160008201548152602001600182018054600181600116156101000203166002900480601f016020809104026020016040519081016040528092919081815260200182805460018160011615610100020316600290048015610b4d5780601f10610b2257610100808354040283529160200191610b4d565b820191906000526020600020905b815481529060010190602001808311610b3057829003601f168201915b5050509183525050600282810180546040805160206001841615610100026000190190931694909404601f81018390048302850183019091528084529381019390830182828015610bdf5780601f10610bb457610100808354040283529160200191610bdf565b820191906000526020600020905b815481529060010190602001808311610bc257829003601f168201915b5050509183525050600382015460208083019190915260048301805460408051601f60026000196101006001871615020190941693909304928301859004850281018501825282815294019392830182828015610c7d5780601f10610c5257610100808354040283529160200191610c7d565b820191906000526020600020905b815481529060010190602001808311610c6057829003601f168201915b505050505081526020016005820154815260200160068201548152505081526020019060010190610a87565b50505050905090565b6000546001600160a01b031681565b60606003805480602002602001604051908101604052809291908181526020016000905b82821015610ca95760008481526020908190206040805160058602909201805460026001821615610100026000190190911604601f8101859004909402830160e090810190925260c0830184815292939092849290918491840182828015610d8e5780601f10610d6357610100808354040283529160200191610d8e565b820191906000526020600020905b815481529060010190602001808311610d7157829003601f168201915b50505050508152602001600182018054600181600116156101000203166002900480601f016020809104026020016040519081016040528092919081815260200182805460018160011615610100020316600290048015610e305780601f10610e0557610100808354040283529160200191610e30565b820191906000526020600020905b815481529060010190602001808311610e1357829003601f168201915b5050509183525050600282015460208083019190915260038301546001600160a01b0381166040840152600160a01b900461ffff1660608301526004909201546080909101529082526001929092019101610ce5565b60606005805480602002602001604051908101604052809291908181526020016000905b82821015610ca957838290600052602060002090600602016040518060c00160405290816000820154815260200160018201548152602001600282015481526020016003820154815260200160048201548152602001600582018054600181600116156101000203166002900480601f016020809104026020016040519081016040528092919081815260200182805460018160011615610100020316600290048015610f985780601f10610f6d57610100808354040283529160200191610f98565b820191906000526020600020905b815481529060010190602001808311610f7b57829003601f168201915b50505050508152505081526020019060010190610eaa565b6002805460019081019091556040805160e081018252878152602080820188815292820187905260608201869052608082018590524260a083015260c082018490528354808501808655600095909552825160079091027fb10e2d527612073b26eecdfd717e6a320cf44b4afac2b0732d9fcbe2b7fa0cf681019182559351805193949193611068937fb10e2d527612073b26eecdfd717e6a320cf44b4afac2b0732d9fcbe2b7fa0cf790930192919091019061151e565b506040820151805161108491600284019160209091019061151e565b5060608201516003820155608082015180516110aa91600484019160209091019061151e565b5060a0820151816005015560c082015181600601555050507f0c80f2443dee431ec4a868e4ec831c6bb965b3d8bc18d8715c744d8276729cbe85858585854260016040516110fe9796959493929190611c9b565b60405180910390a15050505050565b6000805b6006548110156104f757826005828154811061112957fe5b9060005260206000209060060201600101541415611168576005818154811061114e57fe5b9060005260206000209060060201600401549150506104f9565b600101611111565b6111786114e8565b60005b6006548110156112b057826005828154811061119357fe5b90600052602060002090600602016000015414156112a857600581815481106111b857fe5b90600052602060002090600602016040518060c00160405290816000820154815260200160018201548152602001600282015481526020016003820154815260200160048201548152602001600582018054600181600116156101000203166002900480601f01602080910402602001604051908101604052809291908181526020018280546001816001161561010002031660029004801561129c5780601f106112715761010080835404028352916020019161129c565b820191906000526020600020905b81548152906001019060200180831161127f57829003601f168201915b50505050508152505091505b60010161117b565b506112be81602001516109df565b600114156104f957919050565b6112d361159c565b60005b6004548110156104f75782600382815481106112ee57fe5b90600052602060002090600502016002015414156114a3576003818154811061131357fe5b600091825260209182902060408051600593909302909101805460026001821615610100026000190190911604601f8101859004909402830160e090810190925260c08301848152929390928492909184918401828280156113b65780601f1061138b576101008083540402835291602001916113b6565b820191906000526020600020905b81548152906001019060200180831161139957829003601f168201915b50505050508152602001600182018054600181600116156101000203166002900480601f0160208091040260200160405190810160405280929190818152602001828054600181600116156101000203166002900480156114585780601f1061142d57610100808354040283529160200191611458565b820191906000526020600020905b81548152906001019060200180831161143b57829003601f168201915b50505091835250506002820154602082015260038201546001600160a01b0381166040830152600160a01b900461ffff16606082015260049091015460809091015291506104f99050565b6001016112d6565b6040518060e00160405280600081526020016060815260200160608152602001600081526020016060815260200160008152602001600081525090565b6040518060c001604052806000815260200160008152602001600081526020016000815260200160008152602001606081525090565b828054600181600116156101000203166002900490600052602060002090601f016020900481019282601f1061155f57805160ff191683800117855561158c565b8280016001018555821561158c579182015b8281111561158c578251825591602001919060010190611571565b506115989291506115df565b5090565b6040518060c0016040528060608152602001606081526020016000815260200160006001600160a01b03168152602001600061ffff168152602001600081525090565b61050291905b8082111561159857600081556001016115e5565b803561160481611e48565b92915050565b600082601f83011261161b57600080fd5b813561162e61162982611d93565b611d6c565b9150808252602083016020830185838301111561164a57600080fd5b611655838284611e02565b50505092915050565b803561160481611e5f565b6000806000806080858703121561167f57600080fd5b843567ffffffffffffffff81111561169657600080fd5b6116a28782880161160a565b945050602085013567ffffffffffffffff8111156116bf57600080fd5b6116cb8782880161160a565b93505060406116dc8782880161165e565b92505060606116ed878288016115f9565b91505092959194509250565b60006020828403121561170b57600080fd5b6000611717848461165e565b949350505050565b600080600080600060a0868803121561173757600080fd5b6000611743888861165e565b955050602086013567ffffffffffffffff81111561176057600080fd5b61176c8882890161160a565b945050604086013567ffffffffffffffff81111561178957600080fd5b6117958882890161160a565b93505060606117a68882890161165e565b925050608086013567ffffffffffffffff8111156117c357600080fd5b6117cf8882890161160a565b9150509295509295909350565b600080600080608085870312156117f257600080fd5b60006117fe878761165e565b945050602061180f8782880161165e565b93505060406118208782880161165e565b925050606085013567ffffffffffffffff81111561183d57600080fd5b6116ed8782880161160a565b600061185583836119fd565b9392505050565b60006118558383611a85565b60006118558383611b20565b61187d81611dce565b82525050565b600061188e82611dc1565b6118988185611dc5565b9350836020820285016118aa85611dbb565b8060005b858110156118e457848403895281516118c78582611849565b94506118d283611dbb565b60209a909a01999250506001016118ae565b5091979650505050505050565b60006118fc82611dc1565b6119068185611dc5565b93508360208202850161191885611dbb565b8060005b858110156118e45784840389528151611935858261185c565b945061194083611dbb565b60209a909a019992505060010161191c565b600061195d82611dc1565b6119678185611dc5565b93508360208202850161197985611dbb565b8060005b858110156118e457848403895281516119968582611868565b94506119a183611dbb565b60209a909a019992505060010161197d565b61187d81611dec565b61187d81611df7565b60006119d082611dc1565b6119da8185611dc5565b93506119ea818560208601611e0e565b6119f381611e3e565b9093019392505050565b805160c080845260009190840190611a1582826119c5565b91505060208301518482036020860152611a2f82826119c5565b9150506040830151611a446040860182611baa565b506060830151611a576060860182611874565b506080830151611a6a6080860182611ba1565b5060a0830151611a7d60a0860182611baa565b509392505050565b805160009060e0840190611a998582611baa565b5060208301518482036020860152611ab182826119c5565b91505060408301518482036040860152611acb82826119c5565b9150506060830151611ae06060860182611baa565b5060808301518482036080860152611af882826119c5565b91505060a0830151611b0d60a0860182611baa565b5060c0830151611a7d60c0860182611baa565b805160009060c0840190611b348582611baa565b506020830151611b476020860182611baa565b506040830151611b5a6040860182611baa565b506060830151611b6d6060860182611baa565b506080830151611b806080860182611baa565b5060a083015184820360a0860152611b9882826119c5565b95945050505050565b61187d81611dd9565b61187d81610502565b602081016116048284611874565b602080825281016118558184611883565b6020808252810161185581846118f1565b602080825281016118558184611952565b60c08082528101611c0581896119c5565b90508181036020830152611c1981886119c5565b9050611c286040830187611baa565b611c356060830186611874565b611c4260808301856119b3565b611c4f60a08301846119bc565b979650505050505050565b6020808252810161185581846119fd565b602080825281016118558184611a85565b602080825281016118558184611b20565b602081016116048284611baa565b60e08101611ca9828a611baa565b8181036020830152611cbb81896119c5565b90508181036040830152611ccf81886119c5565b9050611cde6060830187611baa565b8181036080830152611cf081866119c5565b9050611cff60a0830185611baa565b611d0c60c08301846119bc565b98975050505050505050565b60c08101611d268289611baa565b611d336020830188611baa565b611d406040830187611baa565b611d4d6060830186611baa565b611d5a60808301856119bc565b81810360a0830152611d0c81846119c5565b60405181810167ffffffffffffffff81118282101715611d8b57600080fd5b604052919050565b600067ffffffffffffffff821115611daa57600080fd5b506020601f91909101601f19160190565b60200190565b5190565b90815260200190565b600061160482611de0565b61ffff1690565b6001600160a01b031690565b600061160482611dd9565b600061160482610502565b82818337506000910152565b60005b83811015611e29578181015183820152602001611e11565b83811115611e38576000848401525b50505050565b601f01601f191690565b611e5181611dce565b8114611e5c57600080fd5b50565b611e518161050256fea365627a7a72315820179cd2158df4485eac23031dd24e82b03c585f4550d6429d80d23d0feeaac4716c6578706572696d656e74616cf564736f6c63430005100040",
  "source": "pragma solidity >=0.4.22 <0.7.0;\r\npragma experimental ABIEncoderV2;\r\n\r\ncontract KYC{\r\n    address public owner = msg.sender;\r\n    \r\n    // ----------------------Structure-------------------------\r\n    struct customer {\r\n        uint256 cin;\r\n        string name;\r\n        string email;\r\n        uint256 mobileNumber;\r\n        string description; // description du customer\r\n        uint timestamp; // horaire de l'enregistrement sur la blockchain\r\n        uint status;//ok=1 ou no=0\r\n    }\r\n    struct bank {\r\n        string name;\r\n        string email;\r\n        uint256 bankCode;\r\n        address bankAdress;\r\n        uint16 kycCount; // How many KCY's did this bank completed so far\r\n        uint status; // Active=1,Inactive=0 \r\n    }\r\n    struct kycReq {\r\n        uint256 id;\r\n        uint256 cin;\r\n        uint256 bankCode;\r\n        uint timestamp;\r\n        uint status;//Pending=0 , KYCVerified=1, KYCFailed=2\r\n        string description;\r\n        \r\n    }\r\n\r\n    //---------------Listes-----------------------------------\r\n    //--all customers\r\n    customer[] all_customers ; \r\n    uint  number_customers ; \r\n    //--all banks\r\n    bank[] all_banks ; \r\n    uint  number_banks ;\r\n    //--all kycRequest\r\n    kycReq[] all_kycReqs ; \r\n    uint  number_kycReqs ;\r\n    \r\n\r\n\r\n   //$$$$$$$$$$$$$$$$$$$$$$$$$$$$$$$$$$$$$$$$$$$$$$$$$$$$$$$$$$$$$$$$\r\n   constructor() public {\r\n        number_customers=0 ; \r\n        number_banks=0 ; \r\n\r\n       \r\n   }\r\n    //*********************CUSTOMER*********************************************\r\n    event addCustomerE(uint256 cin,string name,string email,uint256 mobileNumber,string description,uint timestamp, uint status);\r\n\r\n\r\n    function addCustomer(uint256 cin,string memory name,string memory email,uint256 mobileNumber,string memory description) public{\r\n        number_customers+=1;\r\n        all_customers.push(customer(cin,name,email,mobileNumber,description,block.timestamp,1));\r\n        emit addCustomerE(cin,name,email,mobileNumber,description,block.timestamp,1);\r\n        }\r\n\r\n    function getAllCustomers() public view returns(customer[] memory CS){\r\n        return all_customers;\r\n    }\r\n\r\n    function getCustomerByCIN(uint256 c) public view returns(customer memory CS){\r\n        for (uint256 i = 0; i < number_customers; i++) \r\n            if ( all_customers[i].cin == c ) {\r\n                return all_customers[i];\r\n            }       \r\n        }\r\n\r\n    function getStateOfCustomer(uint256 c) public view returns(uint stat){\r\n        for (uint256 i = 0; i < number_customers; i++) \r\n            if ( all_customers[i].cin == c ) {\r\n                stat = all_customers[i].status;\r\n                return all_customers[i].status;\r\n            }       \r\n        }\r\n\r\n    function getCustomersCount() public view returns(uint256){\r\n        return number_customers;\r\n    }\r\n    //*********************BANK*********************************************\r\n\r\n    event addBankE(string name,string email,uint256 bankCode,address bankAdress,uint16 kycCount,uint status);\r\n\r\n    function addBank(string memory name,string memory email,uint256 bankCode,address bankAdress) public{\r\n        number_banks+=1;\r\n        all_banks.push(bank(name, email,bankCode,bankAdress,0,0));\r\n        emit addBankE(name, email,bankCode,bankAdress,0,0);\r\n        }\r\n\r\n    function getAllBanks() public view returns(bank[] memory){\r\n        return all_banks;\r\n    }\r\n\r\n    function getBankBybankCode(uint256 c) public view returns(bank memory BN){\r\n        for (uint256 i = 0; i < number_banks; i++) \r\n            if ( all_banks[i].bankCode == c ) {\r\n                return all_banks[i];\r\n            }       \r\n        }\r\n\r\n    function getStateOfBank( uint256 c) public view returns(uint stat){\r\n        for (uint256 i = 0; i < number_banks; i++) \r\n            if ( all_banks[i].bankCode == c ) {\r\n                return all_banks[i].status;\r\n            }       \r\n        }\r\n\r\n    function getBanksCount() public view returns(uint256){\r\n        return number_banks;\r\n    }\r\n    //*********************KYCRequest*********************************************\r\n    event addKycReqE(uint256 id,uint256 cin,uint256 bankCode,uint timestamp,uint status,string description);\r\n\r\n\r\n    function addKycReq(uint256 id,uint256 cin,uint256 bankCode,string memory description) public{\r\n        number_kycReqs+=1;\r\n        all_kycReqs.push(kycReq(id,cin,bankCode,block.timestamp,0,description));\r\n        emit addKycReqE(id,cin,bankCode,block.timestamp,0,description);\r\n        }\r\n\r\n    function approvingKycReq(uint256 id) public view returns(kycReq memory kyc_temp ){        \r\n        for (uint256 i = 0; i < number_kycReqs; i++) \r\n            if ( all_kycReqs[i].id == id ) {\r\n                kyc_temp = all_kycReqs[i];\r\n            }   \r\n        if(getStateOfCustomer(kyc_temp.cin)==1){\r\n            kyc_temp.status ==2;\r\n        }\r\n    }\r\n\r\n    function getKycReqs() public view returns(kycReq[] memory kycreqs){\r\n        return all_kycReqs;\r\n    }\r\n\r\n    function getKycReqByCIN(uint256 c) public view returns(kycReq memory kycreq){\r\n        for (uint256 i = 0; i < number_kycReqs; i++) \r\n            if ( all_kycReqs[i].cin == c ) {\r\n                return all_kycReqs[i];\r\n            }       \r\n        }\r\n    function getKycReqByBankCode(uint256 c) public view returns(kycReq memory kycreq){\r\n        for (uint256 i = 0; i < number_kycReqs; i++) \r\n            if ( all_kycReqs[i].bankCode == c ) {\r\n                return all_kycReqs[i];\r\n            }       \r\n        }\r\n\r\n    function getStateOfKycReq(uint256 c) public view returns(uint status){\r\n        for (uint256 i = 0; i < number_kycReqs; i++) \r\n            if ( all_kycReqs[i].cin == c ) {\r\n                return all_kycReqs[i].status;\r\n            }       \r\n        }\r\n\r\n    function getKycReqCount() public view returns(uint256 nbr){\r\n        return number_kycReqs;\r\n    }\r\n\r\n\r\n}",
  "sourcePath": "C:\\Users\\Oumayma\\Desktop\\Projet Dapp_KYC\\contracts\\KYC.sol",
  "compiler": {
    "name": "solc",
    "version": "0.5.16+commit.9c3226ce.Emscripten.clang"
  },
  "schemaVersion": "3.4.11",
  "updatedAt": "2022-12-03T10:42:10.566Z",
  "devdoc": {
    "methods": {}
  },
  "userdoc": {
    "methods": {}
  }
}